:1000000016C1000045C1000043C1000041C100000D
:100010003FC100003DC100003BC1000039C10000EC
:1000200037C1000059C6000057C6000055C6000081
:100030002FC100002DC100002BC1000029C100000C
:1000400027C1000025C1000023C1000021C100001C
:100050001FC100001DC100001BC100000C94DB0883
:1000600017C100000C94470C0C947D0C11C10000CA
:100070000FC100000DC100000BC1000009C100004C
:1000800007C1000005C1000003C1000001C100005C
:10009000FFC00000FDC00000FBC00000F9C0000070
:1000A000F7C00000F5C00000F3C00000F1C0000080
:1000B000EFC00000EDC00000EBC00000E9C0000090
:1000C000E7C00000E5C00000E3C00000E1C00000A0
:1000D000DFC00000DDC00000DBC00000D9C00000B0
:1000E000D7C00000F309F609E509E909EF092D0A6F
:1000F000FA09FE09040A080A0C0A120A160A1A0A60
:100100002D0A200A240A280A00000A0B02090C0DF5
:100110000E080703040100000000000000000000BA
:1001200000000000000000000000000000000000CF
:10013000000000001211100000000000000000008C
:1001400000000000000000000000000000000102AC
:1001500010202008081020401020408002010201D9
:100160000804020101020408102040808040201091
:1001700008040201800402018040201008040201EA
:100180000804020101020408102040800102040852
:10019000102040800505050507050808080802022B
:1001A00002020A0A08080404040401010101010111
:1001B00001010303030303030303040707070C0CF4
:1001C0000C0C0C0C0C0C02020202060606060606BB
:1001D00006060B0B0B0B0B0B0B0B00002000230078
:1001E000260029002C002F0032000001000003012E
:1001F0000601090100002200250028002B002E0026
:100200003100340002010000050108010B0100006B
:100210002100240027002A002D00300033000101B6
:100220000000040107010A01F602AF0C0E031124BD
:100230001FBECFEFD1E2DEBFCDBF00E00CBF16E0A6
:10024000A0E0B2E0EEE3FDE100E00BBF02C00790EA
:100250000D92A03CB107D9F72AE0A0ECB6E001C0AE
:100260001D92A332B207E1F712E0CCE2D2E000E047
:1002700006C022970109FE010BBF0E94760EC8320C
:10028000D10780E00807A9F70E94F30C0C948E0EAA
:10029000B7CEBF92CF92DF92EF92FF920F931F9350
:1002A000CF93DF93FC0122E138E080E090E070E042
:1002B000C5E02A5F3F4F861797070CF063C0408167
:1002C000552747FD509540525109C49FD001C59F05
:1002D000B00D1124AA0FBB1FA050BE4F4C91D901E5
:1002E00016974C934081552747FD50954052510930
:1002F000C49FD001C59FB00D1124AA0FBB1FAE5FD4
:10030000BD4F4C91D90115974C934081552747FD1E
:10031000509540525109C49FD001C59FB00D112482
:10032000AA0FBB1FAC5FBD4F4C91D90114974C93E2
:100330004081552747FD509540525109C49FD00137
:10034000C59FB00D1124AA0FBB1FAA5FBD4F4C91D2
:10035000D90113974C934191552747FD5095405231
:100360005109C49FD001C59FB00D1124AA0FBB1F16
:10037000A85FBD4F4C91D90112974C9311961C92D6
:10038000019697CF86E0869F8001879F100D1124EC
:10039000EAE4F7E0C2E1D8E067E070E081E090E0F5
:1003A000A0E0B0E09F012A54374020173107A4F5A0
:1003B0004991552747FD509520E030E07B01E21A36
:1003C000F30A6A0102C0D594C794EA94E2F7C0FE2A
:1003D0000EC0B0806C017D01022E04C0CC0CDD1C6F
:1003E000EE1CFF1C0A94D2F7BC28B0820EC06C0130
:1003F0007D01022E04C0CC0CDD1CEE1CFF1C0A94F7
:10040000D2F7C094F080FC20F0822F5F3F4F28305D
:100410003105A1F63196C6CFDF91CF911F910F9193
:10042000FF90EF90DF90CF90BF900895CF93DF9330
:1004300040ED57E060E070E086E499E02BD620E8DC
:1004400035E240E050E066E879E086E499E034D6B1
:1004500086E499E01DD666EC75E08091770990916D
:1004600078090E943D0D6AE070E080E090E01CD7C2
:1004700041E060E086E499E084D6C0E0D0E080917D
:10048000C4059091C505C817D9078CF440E0BE019A
:1004900080EC96E025D244E050E0BE0180EC96E08E
:1004A00042D2BE0180EC96E04FD22196E8CF64E0C4
:1004B00088ED95E0EEDE26E040E855E260E070E091
:1004C00086E899E00E94E70B40E855E260E070E0C2
:1004D0008BED98E001D56DED75E08BED98E0DF9147
:1004E000CF910C94480D2F923F924F925F926F9252
:1004F0007F928F929F92AF92BF92CF92DF92EF92B4
:10050000FF920F931F93CF93DF9396E0899F500143
:10051000112400E010E087E0282E312C0A151B057D
:100520000CF051C06091C2057091C305882777FD1A
:100530008095982FB9D6C12CD12CC0E0D0E0C8014D
:10054000865B984F2C01C8018E5E974F3C018091CD
:10055000C4059091C505C817D90794F5E12CF12C75
:10056000C0FD16C043018C0C9D1CF401EE0DFF1D57
:10057000A1014E195F092081BE0180EC96E09FD257
:100580008FEFE81AF80A98E0E916F10471F713C042
:1005900042018C0C9D1CF401EE0DFF1D2081A70172
:1005A000BE0180EC96E08BD28FEFE81AF80A98E053
:1005B000E916F10481F7219688E0C80ED11CC7CF57
:1005C0000F5F1F4FABCFDF91CF911F910F91FF9026
:1005D000EF90DF90CF90BF90AF909F908F907F90E3
:1005E0006F905F904F903F902F9008950F931F93BF
:1005F00020E049E068E08BED98E040D40091C4052C
:100600001091C5052AE030E04BE050E06CE070E06E
:1006100080EC96E0CED11F910F9108958BED98E07C
:10062000D9C3CF92DF92EF92FF920F931F93CF9394
:10063000DF930BD6672B682B692B39F406D6623013
:1006400071058105910508F470C0FFD56093FA0823
:100650007093FB088093FC089093FD080091FE08BE
:100660001091FF082091000930910109601771076E
:100670008207930740F46093FE087093FF0880930D
:100680000009909301090091FE081091FF08209144
:100690000009309101096B017C01C01AD10AE20AFC
:1006A000F30A970186010A3F11052105310508F477
:1006B0003CC06093FE087093FF08809300099093FC
:1006C000010986E499E0E4D465E176E08091770958
:1006D000909178090E943D0D6DE176E08091770957
:1006E000909178090E943D0DB0D5AB01BC012AE084
:1006F00030E080917709909178090E940C0E6FE1AB
:1007000076E080917709909178090E943D0D65E02F
:1007100070E080E090E0C8D56AE070E080E090E0B2
:10072000C3D561E086E499E0EFD48091C005DBDEBB
:100730008BED98E06DD2181619060CF069C08BEDA0
:1007400098E066D29093C1058093C005C8E1D7E0D8
:100750008091C0059091C1059E012851374028170E
:1007600039073CF48BED98E0C6D18093DA08899381
:10077000EFCF68E276E086E899E00E943D0D68E1FF
:1007800077E086E899E00E94480D68E276E08BED1C
:1007900098E00E943D0D68E177E08BED98E00E94C3
:1007A000480D62E376E086E899E00E943D0D609195
:1007B000C0057091C1054AE050E086E899E00E94CA
:1007C000F60D62E376E08BED98E00E943D0D6091BE
:1007D000C0057091C1054AE050E08BED98E00E94A1
:1007E000F60DE2E1F8E0AAE4B7E011921D9288E08C
:1007F000EA3DF807D1F76091C00588E197E0DF9105
:10080000CF911F910F91FF90EF90DF90CF9041CD4E
:10081000DF91CF911F910F91FF90EF90DF90CF90DC
:1008200008958F929F92AF92BF92CF92DF92EF92F4
:10083000FF920F931F93CF93DF931F921F92CDB719
:10084000DEB78C0149832A83660F771FF801EA5AC5
:10085000FF4FE080F180EE0CFF1CF801CF01801B00
:10086000910B8E159F0514F41192F8CF8981F80130
:10087000E60FF71F81838A818083680184E5C80EB3
:10088000D11C60E0F601808122D65801F2E5AF0E5E
:10089000B11C480180E5880E911C1E141F0474F4DD
:1008A000E1E0EE1AF108F801EE0DFF1D208141E0B4
:1008B000F5016081F40180813FD6EFCF61E0F60160
:1008C00080810F900F90DF91CF911F910F91FF903A
:1008D000EF90DF90CF90BF90AF909F908F90F7C533
:1008E00077FD0FC0FC01EA5AFF4F2081318162176A
:1008F00073073CF4442311F020E001C021E04CE0F8
:1009000090CF089577FD0EC0FC01EA5AFF4F208179
:1009100031816217730734F44830510518F4242FDD
:100920004BE07FCF089577FD0EC0FC01EA5AFF4FE0
:10093000208131816217730734F44031510518F476
:10094000242F4AE06ECF0895CF92DF92EF92FF926C
:100950000F931F93CF93DF937C018B0177FD20C012
:10096000FC01EA5AFF4F8081918168177907C4F42E
:100970006B0123E0CC0CDD1C2A95E1F7C0E0D0E050
:10098000CE0CDF1CF601EC0FFD1F108A4C2F4F5FC1
:1009900020E0B801C70145DF2196C830D10591F7A5
:1009A000DF91CF911F910F91FF90EF90DF90CF904B
:1009B00008954F925F927F928F929F92AF92BF92D3
:1009C000CF92DF92EF92FF920F931F93CF93DF931B
:1009D0001F92CDB7DEB72C01762E7C0180E5E80EA4
:1009E000F11CF701608371834201F2E58F0E911CC7
:1009F000F401518340836201F4E5CF0ED11CF6016E
:100A000031832083C8010197089710F008E010E0B7
:100A10005201F6E5AF0EB11CF5011183008361E0D0
:100A2000872D79831BD561E0F401808117D561E0C2
:100A3000F601808113D561E0F601808148D5F70188
:100A400070827981718380E090E0F201E80FF91FF4
:100A5000108A019680349105C1F700E010E0F5019D
:100A60008081918108171907CCF420E04FE0B8018C
:100A7000C201D7DE47E050E0B801C20143DF20E009
:100A800049E0B801C201CDDEB801C2015DDF41E03D
:100A9000B801C20125DF0F5F1F4FE1CF0F90DF913B
:100AA000CF911F910F91FF90EF90DF90CF90BF906B
:100AB000AF909F908F907F905F904F90089577FDBB
:100AC00019C0FC01EA5AFF4F0190F081E02D6E172A
:100AD0007F0784F44830510568F4FB01A3E0EE0F72
:100AE000FF1FAA95E1F7E80FF91FE40FF51F208B10
:100AF0004F5F97CE089520914409309145092817FA
:100B00003907B9F49091020980910309981789F087
:100B1000E0910209F0E0EC5FF64F8081209102093C
:100B200030E02F5F3F4F2F7333272093020990E06F
:100B300008958FEF9FEF08951F93CF93DF93DC010C
:100B40005C968D919C915D97009749F481E090E0CF
:100B500013969C938E93129780E090E03BC0519641
:100B6000ED91FC91529750962C915097322F3095E1
:100B70001FB75E964C915E9741FB772770F941FD58
:100B80006095F8944081772311F0422B01C04323F4
:100B90004083EC012197F1F748E0508160FF02C0EB
:100BA000522B01C053235083EC012197F1F7669536
:100BB000415099F78081772311F0832301C0822B64
:100BC00080831FBF5C968D919C915D970197F1F793
:100BD00081E090E0DF91CF911F9108952091440929
:100BE000309145092817390781F4909102098091C5
:100BF0000309981751F0E0910209F0E0EC5FF64F1D
:100C00008081992787FD909508958FEF9FEF089534
:100C100020914409309145092817390769F48091DA
:100C200003092091020990E0805C9F4F821B91098B
:100C300060E470E00C941F0E80E090E00895209135
:100C40004409309145092817390739F48FB7F894CA
:100C500010920309109202098FBF0895E091440990
:100C6000F0914509E817F90769F4A389B4899C91C3
:100C70008589809589238C931092450910924409A7
:100C800081E0089580E00895CF93DF93EC018A8D91
:100C90009B8D892BE9F080914409909145098C172F
:100CA0009D07B1F0009709F0D9DF8E8D8E7F8E8F72
:100CB0001092030910920209D0934509C093440988
:100CC000EB89FC8980819D89892B808381E001C02B
:100CD00080E0DF91CF9108951F920F920FB60F928F
:100CE00011240BB60F922F933F934F935F936F9303
:100CF0007F938F939F93AF93BF93EF93FF93E09175
:100D00004409F0914509309709F451C0868DA685B4
:100D1000B785958581FF04C08C91892329F447C04C
:100D20008C91892309F043C0A389B4899C9185895A
:100D3000809589238C93868997890197F1F7208D77
:100D4000318DA685B785758558E040E0C9010197CA
:100D5000F1F7842F90E095958795482F6C91672344
:100D600009F04068515091F7868D81FD4095809142
:100D7000030990E001968F739927209102092817A3
:100D800049F0A0910309B0E0AC5FB64F4C9380935B
:100D9000030903C0868D8160868F828D938D0197B4
:100DA000F1F7A389B4898C919589892B8C93FF9154
:100DB000EF91BF91AF919F918F917F916F915F91D3
:100DC0004F913F912F910F900BBE0F900FBE0F9040
:100DD0001F90189520E436E0FC01318320833ECF3C
:100DE0001F93CF93DF93EC01162F6E8D6695617084
:100DF00081E06827812F6BD361E0812F2FD3812F72
:100E000090E0FC01E25BFE4FE491E88BFC01EC56C4
:100E1000FE4FE491F0E0EE0FFF1FEC50FE4F859186
:100E200094919A8B898BDF91CF911F9108951F9395
:100E3000CF93DF93EC01162F60E0812F0FD38E8DBF
:100E400081FD03C061E0812F42D31C87812F90E098
:100E5000FC01E25BFE4FE491ED87FC01EC56FE4F96
:100E6000E491F0E0EE0FFF1FE652FE4F8591949162
:100E70009F878E87DF91CF911F910895FF920F93E7
:100E80001F93CF93DF93EC01F62E522F1B821A8211
:100E900008EE13E020E030E00C831D832E833F83B7
:100EA00080E496E0998388831F8A1E8A198E188EA3
:100EB0001B8E1A8E1D8E1C8E8E8D8E7F50FB81F99F
:100EC0008E8F642FCE018CDF6F2DCE01DF91CF91FD
:100ED0001F910F91FF90ABCF0F931F93CF93DF9391
:100EE000EC019A01AB011B8E1A8E198E188E1F8A87
:100EF0001E8A60E079E08DE390E0D6D6C901243007
:100F0000310520F0B9016350710902C061E070E061
:100F10007D8F6C8F1C8506EF010F043048F06EEC5E
:100F2000610F643028F062EC610F683008F07DC01A
:100F3000B901769567956431710518F063517109AF
:100F400002C061E070E07F8B6E8B069718F0C901DC
:100F5000059702C081E090E0998F888FC901880FC2
:100F6000991F820F931F96958795969587958D303B
:100F7000910510F00C9702C081E090E09B8F8A8F62
:100F8000043060F08EEC810F843040F082EC810FF1
:100F9000883008F050C0A8E6B0E04FC0A8E6B0E046
:100FA000E8E6F0E09081043028F01E53183010F489
:100FB00084E001C081E0892B8C932C8536EF320FC1
:100FC000343058F08EEC820F843038F082EC820F8F
:100FD000883030F48DE690E005C08BE690E002C0EA
:100FE00080E090E09C8B8B8B343010F426500BC04B
:100FF000223379F0233379F0243379F082EC820FB5
:10100000883068F4282F81E001C0880F2A95EAF71C
:1010100007C088E005C084E003C082E001C081E031
:101020008D8B8C8D9D8D0197F1F7CE01DF91CF9146
:101030001F910F9129CEA0E0B0E0883008F4B0CF26
:10104000E0E0F0E0AFCF0F931F93CF93DF93EC017D
:10105000662351F0FAD069837A838B839C83DF9176
:10106000CF911F910F910895F0D009811A812B81A2
:101070003C81601B710B820B930B643671058105FB
:10108000910540F763E070E080E090E00DD1ECCF97
:1010900060E0D9CFFC0113AA14AA15AA16AA1182DE
:1010A000128213821482411551056105710519F0F0
:1010B000CB01BA01F9C00895FB01BA01A901DC0115
:1010C000D296FC93EE93D19726E0CF0180C31F9375
:1010D000CF93DF93EC01162F6CE476E089A99AA9EF
:1010E000CCD44AE050E0612F89A99AA9A1D563E543
:1010F00076E089A99AA9C1D462E370E080E090E02B
:10110000DF91CF911F91D0C01F93CF93DF93EC015C
:10111000162F8D81882381F189A99AA9DC01ED918F
:10112000FC910480F581E02D1995892BA9F307C066
:101130002637310511F12835310509F41D8289A9B9
:101140009AA9DC01ED91FC910480F581E02D1995BF
:10115000181619068CF489A99AA9DC01ED91FC9165
:101160000680F781E02D19959C0133272336310540
:10117000F9F6612FCE01ABDF83E6DF91CF911F91AE
:1011800008950F931F93CF93DF931F92CDB7DEB7D0
:101190008C01662341F081E0F801858360E0C8019D
:1011A0004983B2DF4981F80145830F90DF91CF91E8
:1011B0001F910F9108951F920F920FB60F92112455
:1011C0002F933F938F939F93AF93BF9380917E090B
:1011D00090917F09A0918009B091810930917D099A
:1011E00023E0230F2D3720F40196A11DB11D05C06A
:1011F00026E8230F0296A11DB11D20937D0980933F
:101200007E0990937F09A0938009B0938109809112
:10121000820990918309A0918409B0918509019672
:10122000A11DB11D8093820990938309A093840925
:10123000B0938509BF91AF919F918F913F912F916D
:101240000F900FBE0F901F9018952FB7F8946091D4
:101250007E0970917F0980918009909181092FBF4B
:1012600008953FB7F8948091820990918309A091E5
:101270008409B091850926B5A89B05C02F3F19F0B8
:101280000196A11DB11D3FBF6627782F892F9A2F88
:10129000620F711D811D911D42E0660F771F881F2F
:1012A000991F4A95D1F70895CF92DF92EF92FF925E
:1012B000CF93DF936B017C01D4DFEB01C114D10428
:1012C000E104F10479F0BAD4CCDF6C1B7D0B683EED
:1012D0007340A0F381E0C81AD108E108F108C851B1
:1012E000DC4FECCFDF91CF91FF90EF90DF90CF906C
:1012F0000895789484B5826084BD84B5816084BD8E
:1013000085B5826085BD85B5816085BDEEE6F0E07E
:10131000808181608083E1E8F0E0108280818260DA
:101320008083808181608083E0E8F0E0808181605B
:101330008083E1EBF0E0808184608083E0EBF0E08B
:10134000808181608083E1E9F0E080818260808338
:10135000808181608083E0E9F0E08081816080832A
:10136000E1EAF0E080818260808380818160808317
:10137000E0EAF0E0808181608083E1E2F1E0808159
:1013800082608083808181608083E0E2F1E08081FF
:1013900081608083EAE7F0E08081846080838081DF
:1013A0008260808380818160808380818068808387
:1013B0001092C100089590E0FC013197E231F105EF
:1013C00008F04BC0EE58FF4F8BC4809180008F77A0
:1013D00003C0809180008F7D80938000089580916C
:1013E0008000877FF9CF84B58F7702C084B58F7D69
:1013F00084BD08958091B0008F7703C08091B000C4
:101400008F7D8093B0000895809190008F7707C002
:10141000809190008F7D03C080919000877F8093A2
:10142000900008958091A0008F7707C08091A00060
:101430008F7D03C08091A000877F8093A0000895D6
:10144000809120018F7707C0809120018F7D03C09C
:1014500080912001877F809320010895CF93DF93AF
:1014600090E0FC01E25BFE4F2491FC01EC56FE4F44
:101470008491882349F190E0880F991FFC01E25F75
:10148000FD4FA591B4918C509E4FFC01C591D49114
:101490009FB7611108C0F8948C91209582238C939A
:1014A000888182230AC0623051F4F8948C91322FE3
:1014B000309583238C938881822B888304C0F89491
:1014C0008C91822B8C939FBFDF91CF9108950F93C6
:1014D0001F93CF93DF931F92CDB7DEB7282F30E055
:1014E000F901E85FFE4F8491F901E25BFE4F149130
:1014F000F901EC56FE4F04910023C1F0882319F046
:10150000698359DF6981E02FF0E0EE0FFF1FEC5097
:10151000FE4FA591B4919FB7F8948C91611103C0CF
:101520001095812301C0812B8C939FBF0F90DF9179
:10153000CF911F910F910895BF92CF92DF92EF92BA
:10154000FF920F931F93CF93DF93C82ED62EB42E06
:10155000C7E0D0E0022F10E087E0E82EF12CB110B8
:101560000AC0F701EC1BFD0BB80102C07595679529
:10157000EA95E2F707C0B8010C2E02C07595679591
:101580000A94E2F7617077278C2DA1DF61E08D2D41
:101590009EDF60E08D2D9BDF219708F7DF91CF91D3
:1015A0001F910F91FF90EF90DF90CF90BF90089523
:1015B000FC01818D228D90E0805C9F4F821B910900
:1015C0008F7399270895FC01918D828D981731F0C2
:1015D000828DE80FF11D858D90E008958FEF9FEFCC
:1015E0000895FC01918D828D981761F0828DDF0145
:1015F000A80FB11D5D968C91928D9F5F9F73928F06
:1016000090E008958FEF9FEF089586EA9CE0892B84
:1016100039F080E090E0892B19F098D1811125C034
:1016200080E090E0892B41F080E090E0892B21F070
:101630000E94000081111CC080E090E0892B41F0E5
:1016400080E090E0892B21F00E940000811113C0FE
:1016500080E090E0892BA1F080E090E0892B81F080
:101660000E94000081110AC008950E940000D8CF96
:101670000E940000E1CF0E940000EACF0C9400001D
:101680000895FC01848DDF01A80FB11DA35ABF4F3F
:101690002C91848D90E001968F739927848FA68971
:1016A000B7892C93A089B1898C9180648C93938D98
:1016B000848D981306C00288F389E02D80818F7D88
:1016C00080830895CF93DF93EC01888D8823C1F048
:1016D000EA89FB89808185FD05C0A889B9898C913B
:1016E00086FD0EC00FB607FCF5CF808185FFF2CFD7
:1016F000A889B9898C9185FFEDCFCE01C2DFE8CFF3
:10170000DF91CF910895CF92DF92FF920F931F93B5
:10171000CF93DF931F92CDB7DEB76C0181E0D60186
:1017200058968C9358975B969C915B975C968C919E
:101730005C97981307C05096ED91FC91519780816A
:1017400085FD2DC0F601038D10E00F5F1F4F0F7355
:101750001127F02EF601848DF81210C00FB607FC89
:10176000F9CFD6015096ED91FC915197808185FF7C
:10177000F1CFC601698385DF6981ECCF838DE80FE6
:10178000F11DE35AFF4F6083D6015B960C935B9784
:101790005296ED91FC915397808180620CC0D601E6
:1017A0005696ED91FC91579760835096ED91FC9180
:1017B000519780818064808381E090E00F90DF9179
:1017C000CF911F910F91FF90DF90CF900895BF921E
:1017D000CF92DF92EF92FF92CF93DF93EC016A01F9
:1017E0007B01B22EE889F98982E08083411581EE80
:1017F00058076105710599F060E079E08DE390E0AC
:10180000A70196012FD2215031094109510956955E
:10181000479537952795211580E1380790F0E8899D
:10182000F989108260E874E88EE190E0A7019601E2
:1018300019D22150310941095109569547953795DB
:101840002795EC85FD853083EE85FF852083188EF6
:10185000EC89FD89B082EA89FB898081806180837F
:10186000EA89FB89808188608083EA89FB8980819D
:1018700080688083EA89FB8980818F7D8083DF9106
:10188000CF91FF90EF90DF90CF90BF9008951F927F
:101890000F920FB60F9211240BB60F922F938F93C6
:1018A0009F93EF93FF93E0919609F09197098081C0
:1018B000E0919C09F0919D0982FD12C09081809178
:1018C0009F098F5F8F732091A009821751F0E091DB
:1018D0009F09F0E0EA57F64F958F80939F0901C06A
:1018E0008081FF91EF919F918F912F910F900BBE6F
:1018F0000F900FBE0F901F9018951F920F920FB66A
:101900000F9211240BB60F922F933F934F935F9337
:101910006F937F938F939F93AF93BF93EF93FF93B7
:1019200086E899E0AEDEFF91EF91BF91AF919F9174
:101930008F917F916F915F914F913F912F910F9078
:101940000BBE0F900FBE0F901F90189586E899E080
:101950002FDE21E0892B09F420E0822F08951092D8
:1019600089091092880988EE93E0A0E0B0E08093A6
:101970008A0990938B09A0938C09B0938D0988EA0A
:1019800096E0909387098093860985EC90E0909388
:1019900093098093920984EC90E090939509809349
:1019A000940980EC90E0909397098093960981ECDC
:1019B00090E0909399098093980982EC90E090933D
:1019C0009B0980939A0986EC90E090939D098093FF
:1019D0009C0910929F091092A0091092A1091092DF
:1019E000A2090895089585DCFDDF0E941602C5E076
:1019F000DBE00E9411032097E1F307DEFACFCF92DC
:101A0000DF92EF92FF920F931F93CF93DF936C01BE
:101A10007A01EB01E60EF71E00E010E0CE15DF05BF
:101A200061F06991D601ED91FC910190F081E02D7A
:101A3000C6011995080F191FF1CFC801DF91CF9189
:101A40001F910F91FF90EF90DF90CF900895611557
:101A5000710581F0DB010D900020E9F7AD014150E7
:101A60005109461B570BDC01ED91FC910280F3817B
:101A7000E02D199480E090E00895E9CFDC01ED912C
:101A8000FC910190F081E02D199469E576E0DFCFBB
:101A90000F931F93CF93DF93EC01D9DF8C01CE011D
:101AA000F4DF800F911FDF91CF911F910F91089567
:101AB0008F929F92AF92BF92CF92DF92EF92FF925E
:101AC0000F931F93CF93DF93CDB7DEB7A1970FB6D8
:101AD000F894DEBF0FBECDBF7C01C42EE52FCB0135
:101AE000D22E19A221E02D1510F02AE0D22E8E015F
:101AF0000F5D1F4F8D2C912CA12CB12C6C2D7E2FA6
:101B0000A5019401AFD08C2DD29E801911240150D3
:101B100011098A3014F4805D01C0895CF80180836A
:101B2000211531054105510521F0C22EE32FCA01CF
:101B3000E5CFB801C7018BDFA1960FB6F894DEBFE1
:101B40000FBECDBFDF91CF911F910F91FF90EF900E
:101B5000DF90CF90BF90AF909F908F900895CF92DD
:101B6000DF92EF92FF920F931F93CF93DF93EC01DD
:101B70006A017B012115310579F4E881F981019031
:101B8000F081E02D642FDF91CF911F910F91FF9095
:101B9000EF90DF90CF9019942A303105D9F477FF78
:101BA00018C06DE26BDF8C0144275527BA014C1930
:101BB0005D096E097F092AE0CE017ADF800F911F4F
:101BC000DF91CF911F910F91FF90EF90DF90CF9019
:101BD00008952AE0B701A601CE01DF91CF911F91B0
:101BE0000F91FF90EF90DF90CF9062CF0F931F93F4
:101BF000CF93DF93EC019A01AB01662757FD609507
:101C0000762FADDF8C01CE0140DF800F911FDF9179
:101C1000CF911F910F9108952115310541F4DC01F9
:101C2000ED91FC910190F081E02D642F199440CF4B
:101C30009A01462F50E060E070E0EECF089597FBE8
:101C4000072E16F4009406D077FD08D053D007FC79
:101C500005D03EF4909581959F4F089570956195BC
:101C60007F4F0895A1E21A2EAA1BBB1BFD010DC0D8
:101C7000AA1FBB1FEE1FFF1FA217B307E407F5073C
:101C800020F0A21BB30BE40BF50B661F771F881F18
:101C9000991F1A9469F760957095809590959B01AE
:101CA000AC01BD01CF010895052E97FB16F40094F9
:101CB0000FD057FD05D0D6DF07FC02D046F408C090
:101CC00050954095309521953F4F4F4F5F4F089568
:101CD00090958095709561957F4F8F4F9F4F089598
:101CE000EE0FFF1F0590F491E02D19940790F691E7
:101CF000E02D1994AA1BBB1B51E107C0AA1FBB1FF3
:101D0000A617B70710F0A61BB70B881F991F5A9587
:101D1000A9F780959095BC01CD01089512E0CCE221
:101D2000D2E000E005C022970109FE010BBFDEDF13
:0E1D3000CE32D10780E00807B1F7F894FFCF5C
:101D3E00000000000000000000000000F600F600A9
:101D4E00000000000000E0000000E000000028009D
:101D5E00FE002800FE00280000006400D60054009B
:101D6E000800C200CC0010002600C6004C00B200D5
:101D7E0092006C000A0000000000E000000000006D
:101D8E000000380044008200000000008200440081
:101D9E003800000088005000F8005000880008004D
:101DAE0008003E00080008000000000005000600C4
:101DBE0000000800080008000800080000000000ED
:101DCE0006000600000002000C00100060008000FB
:101DDE007C008A009200A2007C0000004200FE00FF
:101DEE0002000000420086008A0092006200440059
:101DFE008200920092006C00100030005000FE0035
:101E0E001000E400A200A200A2009C003C005200C0
:101E1E00920092000C00800086009800E000800086
:101E2E006C009200920092006C0060009200920092
:101E3E00940078000000000036003600000000001C
:101E4E00000035003600000010002800440082001B
:101E5E00000028002800280028002800000082002A
:101E6E00440028001000400080008A0090006000AE
:101E7E007C008200BA00BA0062003E004800880072
:101E8E0048003E00FE009200920092006C007C0022
:101E9E008200820082004400FE00820082008200E6
:101EAE007C00FE009200920092008200FE009000E4
:101EBE009000900080007C00820082008A004E001C
:101ECE00FE00100010001000FE0082008200FE00D6
:101EDE008200820084008200FC0080008000FE00F0
:101EEE001000280044008200FE00020002000200E2
:101EFE000200FE00400020004000FE00FE006000D8
:101F0E0010000C00FE007C008200820082007C002B
:101F1E00FE0090009000900060007C008200820025
:101F2E0086007E00FE00900098009400620064001F
:101F3E009200920092004C0080008000FE00800013
:101F4E008000FC00020002000200FC00F800040009
:101F5E0002000400F800FC0002000C000200FC006D
:101F6E00C600280010002800C600C00020001E0079
:101F7E002000C00086008A009200A200C20000006D
:101F8E000000FE00820000000000000000000000C3
:101F9E0000008000600010000C00020020004000D5
:101FAE00800040002000010001000100010001003E
:101FBE008000400020000000000004002A002A00DB
:101FCE002A001E00FE001200220022001C001C002F
:101FDE0022002200220014001C0022002200120007
:101FEE00FE001C002A002A002A00180010007E00A5
:101FFE0090008000400018002500250025001E00DE
:10200E00FE001000100010000E00000012005E0016
:10201E000200000002000100010011005E00FE003F
:10202E00080008001400220000008200FE000200DA
:10203E0000003E0020001C0020001E003E0020007C
:10204E00200020001E001C002200220022001C0086
:10205E003F0024002400240018001800240024004F
:10206E003F0001003E001000200020001000120072
:10207E002A002A002A000400000010003C00120072
:10208E0004003C000200020002003E0030000C0082
:10209E0002000C0030003800060018000600380060
:1020AE00220014000800140022003800050005006C
:1020BE0005003E00220026002A0032002200000009
:1020CE0010006C008200820000000000FF00000083
:1020DE00000004000200FF000200040082008200E3
:1020EE006C0010000000080010001800080010001E
:1020FE0019000C000500564D4450565F317C315F7F
:10210E00564D4450560D0A00746578740048692087
:10211E00212049276D2077616974696E6720666F8B
:10212E00722061206D6573736167652E205479701E
:10213E006520697420616E6420707265737320531C
:10214E00454E442E00564D4450455F31007C005F95
:10215E00564D4450450D0A00446973706C61793ACE
:10216E0020004C656E677468203A20000000000065
:10217E009C05FF0C08067B05EE051F06564D4450C8
:10218E00435F005F564D4450430D0A004572726F17
:10219E00723A20417474656D707420746F2073658B
:1021AE0074206120726561642D6F6E6C792076618A
:1021BE00726961626C65206F722064617461207453
:1021CE00797065206E6F7420737570706F727465A0
:1021DE00640D0A0000000000830BFF0CD80AF10A00
:1021EE00E30A620B6E616E00696E66006F766600C2
:00000001FF
