:1000000013C1000042C1000040C100003EC1000019
:100010003CC100003AC1000038C1000036C10000F8
:1000200034C100000C944C190C944C190C944C19CC
:100030002CC100002AC1000028C1000026C1000018
:1000400024C1000022C1000020C100001EC1000028
:100050001CC100001AC1000018C100000C94B41AA1
:1000600014C100000C941F1E0C94551E0EC10000FC
:100070000CC100000AC1000008C1000006C1000058
:1000800004C1000002C1000000C10000FEC0000069
:100090000C94CA1E0C94001FF8C00000F6C00000AB
:1000A000F4C00000F2C00000F0C00000EEC000008C
:1000B000ECC00000EAC00000E8C00000E6C000009C
:1000C000E4C00000E2C00000E0C00000DEC00000AC
:1000D000DCC00000DAC00000D8C00000D6C00000BC
:1000E000D4C00000CC1BCF1BBE1BC21BC81B061CF0
:1000F000D31BD71BDD1BE11BE51BEB1BEF1BF31B0E
:10010000061CF91BFD1B011C7C3C3E5E2B3D3F2F5A
:100110005B5D3B2C2A225C0000000A0B02090C0DDF
:100120000E080703040100000000000000000000AA
:1001300000000000000000000000000000000000BF
:10014000000000001211100000000000000000007C
:10015000000000000000000000000000000001029C
:1001600010202008081020401020408002010201C9
:100170000804020101020408102040808040201081
:1001800008040201800402018040201008040201DA
:100190000804020101020408102040800102040842
:1001A000102040800505050507050808080802021B
:1001B00002020A0A08080404040401010101010101
:1001C00001010303030303030303040707070C0CE4
:1001D0000C0C0C0C0C0C02020202060606060606AB
:1001E00006060B0B0B0B0B0B0B0B00002200250064
:1001F00028002B002E003100340002010000050110
:1002000008010B0100002100240027002A002D0016
:100210003000330001010000040107010A018F02D0
:10022000E608F80B871E321F11241FBECFEFD1E264
:10023000DEBFCDBF00E00CBF16E0A0E0B2E0E4EB13
:10024000F3E400E00BBF02C007900D92A63FB10798
:10025000D9F722E1A6EFB6E001C01D92A533B2079F
:10026000E1F712E0C8E2D2E000E006C022970109FF
:10027000FE010BBF0E947720CE31D10780E0080736
:10028000A9F70E94761F0C94D821BACEBF92CF92C4
:10029000DF92EF92FF920F931F93CF93DF93FC01B6
:1002A0002AEB3BE080E090E070E0C5E02A5F3F4F42
:1002B000861797070CF063C04081552747FD50957E
:1002C00040525109C49FD001C59FB00D1124AA0FFF
:1002D000BB1FAA5FBD4F4C91D90116974C9340812B
:1002E000552747FD509540525109C49FD001C59FE5
:1002F000B00D1124AA0FBB1FA85FBD4F4C91D901AF
:1003000015974C934081552747FD50954052510910
:10031000C49FD001C59FB00D1124AA0FBB1FA65FBB
:10032000BD4F4C91D90114974C934081552747FDFF
:10033000509540525109C49FD001C59FB00D112462
:10034000AA0FBB1FA45FBD4F4C91D90113974C93CB
:100350004191552747FD509540525109C49FD00106
:10036000C59FB00D1124AA0FBB1FA25FBD4F4C91BA
:10037000D90112974C9311961C92019697CF86E063
:10038000869F8001879F100D1124E2E6F9E0CAEBF9
:10039000DBE067E070E081E090E0A0E0B0E09F018A
:1003A0002256394020173107A4F54991552747FDBA
:1003B000509520E030E07B01E21AF30A6A0102C0A6
:1003C000D594C794EA94E2F7C0FE0EC0B0806C01E9
:1003D0007D01022E04C0CC0CDD1CEE1CFF1C0A9417
:1003E000D2F7BC28B0820EC06C017D01022E04C081
:1003F000CC0CDD1CEE1CFF1C0A94D2F7C094F080DC
:10040000FC20F0822F5F3F4F28303105A1F6319656
:10041000C6CFDF91CF911F910F91FF90EF90DF90AA
:10042000CF90BF9008952F923F924F925F926F921C
:100430007F928F929F92AF92BF92CF92DF92EF9274
:10044000FF920F931F93CF93DF9396E0899F500104
:10045000112400E010E087E0682E712C0A151B05BE
:100460000CF04AC0C12CD12CC0E0D0E0C8018E599C
:10047000964F2C01C8018654944F1C018091C705EA
:100480009091C805C817D907A4F5E12CF12CC0FD3F
:1004900017C041018C0C9D1CF401EE0DFF1DA30142
:1004A0004E195F092081BE018AE099E00E9430194F
:1004B0009FEFE91AF90A88E0E816F10469F714C019
:1004C00042018C0C9D1CF401EE0DFF1D2081A70143
:1004D000BE018AE099E00E9430199FEFE91AF90AFB
:1004E00088E0E816F10479F7219698E0C90ED11C4E
:1004F000C5CF0F5F1F4FB2CFDF91CF911F910F91EB
:10050000FF90EF90DF90CF90BF90AF909F908F9033
:100510007F906F905F904F903F902F9008950F9332
:100520001F930091C7051091C8052AE030E04BE009
:1005300050E06CE070E08AE099E00E94AA188FEE2B
:1005400098E01F910F9124C30F931F93CF93DF93D4
:10055000CDB7DEB76B970FB6F894DEBF0FBECDBF39
:1005600040ED57E060E070E087EB90E10E94231AD5
:1005700020E032EC41E050E067EF70E187EB90E182
:100580000E94351A87EB90E10E94211A6DEC75E00C
:100590008091E8109091E9100E94C01F6AE070E01D
:1005A00080E090E00E942D1B41E060E087EB90E14D
:1005B0000E949A1A26E040E855E260E070E084E983
:1005C00091E10E94BF1D6FED75E084E991E10E9409
:1005D000CB1F65E38AE19EE04DD468EF75E08AE1C8
:1005E0009EE0E0D5882309F452C021E048EF55E0B1
:1005F0006AE17EE0CE01019650D58B819C8190937B
:10060000F2088093F1088D819E81AF81B885809337
:10061000F3089093F408A093F508B093F608898541
:100620009A85AB85BC858093F7089093F808A093D2
:10063000F908B093FA088DE0FE013D96ABEFB8E003
:1006400001900D928A95E1F78A8D9B8D909309090F
:10065000809308098FEE98E0CED2892BA9F0009103
:10066000F6061091F7068FEE98E026D2F801E850D2
:10067000F94F80838091F6069091F706019690934A
:10068000F7068093F606E6CF8FEE98E0E1D268EFAA
:1006900076E084E991E10E94CB1F00E010E08091B8
:1006A000C7059091C80508171907ACF440E0B801D8
:1006B0008AE099E00E94411844E050E0B8018AE0E5
:1006C00099E00E946418B8018AE099E00E947518C8
:1006D0000F5F1F4FE4CF6091F60688EF96E0D6DDFE
:1006E00063E076E084E991E10E94CB1F6B960FB640
:1006F000F894DEBF0FBECDBFDF91CF911F910F9158
:100700000895CF92DF92EF92FF920F931F93CF93B2
:10071000DF93CDB7DEB76B970FB6F894DEBF0FBE91
:10072000CDBF0E94FE1A672B682B692B41F40E94F3
:10073000FE1A623071058105910508F476C00E94A9
:10074000FE1A6093120E7093130E8093140E909302
:10075000150E0091160E1091170E2091180E309163
:10076000190E601771078207930740F46093160E05
:100770007093170E8093180E9093190E0091160E19
:100780001091170E2091180E3091190E6B017C01FB
:10079000C01AD10AE20AF30A970186010A3F11053D
:1007A0002105310508F441C06093160E7093170EB1
:1007B0008093180E9093190E87EB90E10E94211AF6
:1007C0006BE376E08091E8109091E9100E94C01FE1
:1007D00063E476E08091E8109091E9100E94C01FD8
:1007E0000E94FE1AAB01BC012AE030E08091E810C3
:1007F0009091E9100E94322065E476E08091E81043
:100800009091E9100E94C01F65E070E080E090E0E8
:100810000E942D1B6AE070E080E090E00E942D1B9A
:1008200061E087EB90E10E945D1A8091F606FBDDA6
:1008300084E991E10E94B11C892B09F4DFC068EFC3
:1008400075E08AE19EE0AED4882321F08091C60550
:100850008111C6C023E148EF55E06AE17EE0CE0198
:1008600001961BD48B819C819093F2088093F108B0
:100870008D819E81AF81B8858093F3089093F408B1
:10088000A093F508B093F60889859A85AB85BC8559
:100890008093F7089093F808A093F908B093FA08AA
:1008A0008DE0FE013D96ABEFB8E001900D928A9588
:1008B000E1F78A8D9B8D909309098093080984E95B
:1008C00091E10E94B11C9093EE088093ED0800E046
:1008D00010E08091ED089091EE080817190774F464
:1008E00084E991E10E94CA1C8093EC08682F8FEE86
:1008F00098E00E94C11F0F5F1F4FEBCF8FEE98E073
:10090000A7D16EE476E084E991E10E94CB1F81E0FB
:100910008093C60568EF75E08AE19EE043D48823A2
:1009200009F452C021E048EF55E06AE17EE0CE01D3
:100930000196B3D38B819C819093F2088093F10848
:100940008D819E81AF81B8858093F3089093F408E0
:10095000A093F508B093F60889859A85AB85BC8588
:100960008093F7089093F808A093F908B093FA08D9
:100970008DE0FE013D96ABEFB8E001900D928A95B7
:10098000E1F78A8D9B8D90930909809308098FEE7A
:1009900098E031D1892BA9F00091F6061091F70665
:1009A0008FEE98E089D0F801E850F94F808380916C
:1009B000F6069091F70601969093F7068093F60657
:1009C000E6CF8FEE98E044D168EF76E084E991E1DC
:1009D0000E94CB1F6091F60688EF96E057DC0EC0B0
:1009E00068EF75E08AE19EE0E7D360E676E084E9AF
:1009F00091E10E94CB1F1092C6052CCF6B960FB6CB
:100A0000F894DEBF0FBECDBFDF91CF911F910F9144
:100A1000FF90EF90DF90CF900895CF93DF931F92D8
:100A2000CDB7DEB76983DC01ED91FC910280F381E3
:100A3000E02D41E050E0BE016F5F7F4F19950F90B0
:100A4000DF91CF910895CF93DF93EC01898D9A8D3B
:100A5000009759F0FC01138212820E949E11E98DC9
:100A6000FA8D22813381232B31F081E090E09B834A
:100A70008A8380E090E0DF91CF910895FC01818D21
:100A8000928D009711F00C94100F0895CF93DF937F
:100A90001F92CDB7DEB741E050E0BE016F5F7F4FE0
:100AA000D5D7019719F4898190E002C08FEF9FEFAD
:100AB0000F90DF91CF910895FC01818D928D009769
:100AC00009F0E4CF8FEF9FEF08950F931F93CF931B
:100AD000DF938C01FC01818D928D0097B1F0D6DF00
:100AE000EC018F3FFFEF9F0799F0F801818D928D08
:100AF000FC01428553856485758541505109610922
:100B000071090E94750ECE0105C080E090E002C020
:100B10008FEF9FEFDF91CF911F910F910895CF92AB
:100B2000DF92EF92FF920F931F93CF93DF93EC012D
:100B30007B016A011B821A8208EE13E020E030E09C
:100B40000C831D832E833F838CE696E099838883F4
:100B50008DE190E00E948A209A8F898F009779F02A
:100B60002DE1F701DC0101900D922A95E1F74CE0AF
:100B700050E0B601CE010C960E94C921188EDF917B
:100B8000CF911F910F91FF90EF90DF90CF9008953C
:100B9000FC011382128248EE53E060E070E044836F
:100BA0005583668377838CE696E091838083128EEB
:100BB000118E14860895DC015996ED91FC915A9797
:100BC000309729F0628573858485958508956FEF48
:100BD0007FEFCB010895DC015996ED91FC915A9776
:100BE000309729F06389748985899689089560E032
:100BF00070E0CB010895CF92DF92EF92FF92CF93F6
:100C0000DF93EC01898D9A8D892BC9F0CE01E3DF4A
:100C10006B017C01CE01CFDFA7019601261B370BAC
:100C2000480B590BDA01C901811530E89307A1057A
:100C3000B10538F08FEF9FE7A0E0B0E002C080E0A0
:100C400090E0DF91CF91FF90EF90DF90CF900895EB
:100C5000CF93DF93EC01898D9A8D009741F00E942C
:100C6000550F898D9A8D0E9422211A8E198EDF913F
:100C7000CF9108951F93CF93DF93CDB7DEB76D97D4
:100C80000FB6F894DEBF0FBECDBFAB011C821B8236
:100C90002EE736E03A8329831E8221E0BC01CE0193
:100CA00001960E947F1011E0811102C010E004C083
:100CB000CE0101960E94550F812F6D960FB6F894C4
:100CC000DEBF0FBECDBFDF91CF911F9108954423AA
:100CD00039F00E94771191E0811103C090E001C0CA
:100CE00091E0892F0895CF93DF93FB01208131811B
:100CF000FC01E20FF31FE081EF3211F42F5F3F4F51
:100D0000DA01E0E0F0E0EC01C20FD31FC881CF327E
:100D100049F0CC2339F031962F5F3F4FCD93EC3023
:100D2000F10589F7E40FF51F1082FC01E20FF31FB4
:100D300040814F3211F42F5F3F4FFB0131832083FD
:100D4000FC01E20FF31F81E09081911101C080E06E
:100D5000DF91CF9108954F925F926F927F928F9221
:100D60009F92AF92BF92CF92DF92EF92FF920F933A
:100D70001F93CF93DF93CDB7DEB7C954D1090FB618
:100D8000F894DEBF0FBECDBF5C016B013A01490193
:100D900019A218A28EE796E09F8F8E8F1BA21C824D
:100DA0001B829A8389831E822A961FAE1EAE2A97C3
:100DB0008B017E018EE1E80EF11C44244394AE01C8
:100DC000455C5F4FBE01685B7F4FC5018CDF582ECD
:100DD000482F44259401BE01655C7F4FC801F30193
:100DE0001995811108C00C151D0519F0C8010E9444
:100DF000550F80E027C05520B9F021E0AE01455CD9
:100E00005F4FB801C7010E947F10582E0C151D05B9
:100E100099F0C8010E94550F552059F3902F812F4A
:100E20008701E92EF82ECBCF0C151D0519F0C8014E
:100E30000E94550F81E006C08823D9F28E010F5F12
:100E40001F4FECCFC75BDF4F0FB6F894DEBF0FBE6E
:100E5000CDBFDF91CF911F910F91FF90EF90DF9069
:100E6000CF90BF90AF909F908F907F906F905F904A
:100E70004F9008950F931F93CF93DF93EC01462F6C
:100E800061E0D4D2811102C080E01CC08E01045FF9
:100E90001F4F41E0BE01C8010E94D016882351F0C7
:100EA000B801CE018A9683D591E0811101C090E00E
:100EB000892F08C040E0BE01C8010E94D0168823D7
:100EC00019F3EECFDF91CF911F910F910895FC019F
:100ED000DB0112968D919C911397938382838EE709
:100EE00096E09183808314968C9114978483159651
:100EF0008C911597858316964D915D916D917C919E
:100F0000199746835783608771871A964D915D9133
:100F10006D917C911D9742875387648775871E96D4
:100F20004D915D916D917C91519746875787608B6C
:100F3000718B52968C915297828B53964D915D9105
:100F40006D917C915697438B548B658B768B57961E
:100F50004D915D916D917C915A97478B508F618F28
:100F6000728F5B968D919C915C97948F838F08957F
:100F70004F925F926F927F928F929F92AF92BF92A9
:100F8000CF92DF92EF92FF920F931F93CF93DF9355
:100F9000CDB7DEB7C754D1090FB6F894DEBF0FBE88
:100FA000CDBF6C014A013901665D7F4F5E018EE164
:100FB000A80EB11CC5018BDF1C821B828EE796E058
:100FC0009A8389831E828401FE0131967F015A2C07
:100FD0004B2C6FE270E0C8010E94BE210097D9F14E
:100FE000F80120812F3219F40F5F1F4FF2CF801BC1
:100FF0008D3008F08CE0A82EB12CA501B801CE01EF
:10100000CB960E94C921EBE3F0E0EC0FFD1FEA0D47
:10101000FB1D1082C70149D721E0AE01455C5F4F3F
:10102000652D742DC7010E947F10811109C0F60142
:10103000138212828EE796E091838083158214C01A
:101040000A0D1B1D852D942D30D7C2015E2C4F2C0F
:10105000E92EF82EBECF08191909F3011183008378
:10106000652D742DC60133DFC601C95BDF4F0FB696
:10107000F894DEBF0FBECDBFDF91CF911F910F91CE
:10108000FF90EF90DF90CF90BF90AF909F908F90A8
:101090007F906F905F904F9008959F92AF92BF9214
:1010A000CF92DF92EF92FF920F931F93CF93DF9334
:1010B000CDB7DEB7C955D1090FB6F894DEBF0FBE64
:1010C000CDBF7C016B015A01922E9E01285A3F4FE1
:1010D000CE01CB964DDF6A960EAD1FAD6A970A0D15
:1010E0001B1DF8018081811109C0BE01655C7F4F25
:1010F000CE010196ECDE48E756E03BC019A218A2EB
:101100008EE796E09F8F8E8F1BA221968FAD219741
:10111000811103C0C7013CDD31C08250823058F4D8
:10112000B601665D7F4F292DA801CE014E96E7D707
:1011300081110EC0EFCF292DA801BE01655C7F4F44
:10114000CE014E96DCD7882329F3CE01CB96ADD6BF
:10115000892D867039F049A95AA96BA97CA9CE01BD
:101160004E96C3D5BE01625E7F4FCE010196AFDEC3
:10117000A801BE016F5F7F4FC701D1DCC701C75A0D
:10118000DF4F0FB6F894DEBF0FBECDBFDF91CF911A
:101190001F910F91FF90EF90DF90CF90BF90AF9095
:1011A0009F900895FB01BC01665D7F4F20E030E019
:1011B0004AE356E0CF01CFCDFB01BC01665D7F4F16
:1011C00020E030E047E656E0CF01C5CD10921F0E7B
:1011D0001092200E1092230E1092250E82E090E0C5
:1011E000A0E0B0E08093260E9093270EA093280EE7
:1011F000B093290E10923D0E1092470E1092460E9B
:101200008EE796E09093450E8093440E1092490E1F
:1012100008959FB7F8942091B5108091B3102130B4
:1012200019F48DBB9FBF08958FBF08952091B5100D
:10123000222399F03FB7F8942091B510213059F44A
:101240002DB32093B3104DB32091B41020952423D7
:101250002DBB3FBF02C03093B3108CBD9DBD089520
:101260008EBD00000DB407FEFDCF8EB508958FEF43
:10127000F7CF61E0FC0184810E94401C8091630EE5
:10128000882331F01092630E8091B5108111C1CF87
:101290000895CF93DF93EC018091630E811108C014
:1012A00081E08093630E8091640E9091650EBEDFA5
:1012B00060E08C81DF91CF910C94401CCF93DF9341
:1012C000EC018E81882379F08F8198859C012F5FB6
:1012D0003F4F38872F838230924010F4C8DFF4CF1D
:1012E000CE01C7DF1E82DF91CF910895673028F0CD
:1012F00026E1FC01258380E00895623081F030F41E
:10130000662359F06130B1F480E515C0643059F0BE
:1013100040F0653079F482E50EC080E505C081E5D6
:1013200003C081E508C082E58093640E81E080936C
:10133000650E089583E58093640E1092650E81E03A
:1013400008950F931F93CF93DF93EB010E94FE1A32
:101350008B018DDF8F3F49F00E94FE1A601B710BDD
:101360006C177D07B0F380E001C081E0DF91CF9181
:101370001F910F910895CF92DF92FF920F931F93C9
:10138000CF93DF9300D01F92CDB7DEB76C01F62E5E
:1013900029833A834B835C8391DFC6017ADF6CE259
:1013A00071E0C601CEDF8F2D80645ADF08E110E0C6
:1013B0005C814B813A812981DA01C901002E04C088
:1013C000B695A795979587950A94D2F729833A837E
:1013D0004B835C8345DF0850110929813A814B8199
:1013E0005C81083F8FEF180739F7FF2029F0E8E00C
:1013F000FE1621F08FEF03C085E901C087E830DFDA
:1014000010E035DFF601828787FF04C01F3F11F02F
:101410001F5FF7CF0F900F900F900F90DF91CF913C
:101420001F910F91FF90DF90CF900895BF92CF92C0
:10143000DF92EF92FF920F931F93CF93DF93EC0114
:10144000B62E1B8619861E821D824C830E94FE1AB0
:101450008B0161E08C810E94071C61E08C810E94FD
:10146000401C0E94CA1982E58093640E1092650E9A
:101470008091640E9091650ED9DE2AE0F22E8FEFF6
:10148000EFDEFA94E1F78091B5108111C2DECE0152
:1014900000DF20E030E0A90160E0CE016CDFF82E33
:1014A0008A8781E0F81649F00E94FE1A601B710BD2
:1014B000613D774070F381E046C02AEA31E040E0C8
:1014C00050E068E0CE0157DF82FF02C0FB860CC00F
:1014D00094E0F92ECCDE8A87FA94E1F78A3A11F08B
:1014E00082E031C082E08B878B85823031F4C12C61
:1014F000D12CE12C80E4F82E03C0C12CD12C760134
:1015000020E030E0A90167E3CE0135DFA7019601B5
:1015100069E2CE0130DF8A87882349F00E94FE1AF3
:10152000601B710B613D774058F388E00CC08B85E0
:10153000823001F520E030E0A9016AE3CE011BDF33
:10154000882379F086E08D83CE0193DE80E0DF9101
:10155000CF911F910F91FF90EF90DF90CF90BF90B0
:10156000089585DE807C803C11F483E08B877FDEEC
:101570007EDE7DDECE017DDE6B2DCE01DF91CF9153
:101580001F910F91FF90EF90DF90CF90BF90AECE64
:101590000F931F93CF93DF93EC010E94FE1A8B01F0
:1015A00066DE8A878F3F49F40E94FE1A601B710B2A
:1015B0006D327140A8F38FE003C08E3F31F08DE0B3
:1015C0008D83CE0156DE80E001C081E0DF91CF91B6
:1015D0001F910F910895CF92DF92EF92FF920F9398
:1015E0001F93CF93DF93EC0169010115110509F4F5
:1015F0005DC0C801820F931F8130924008F058C02F
:101600008E81882371F088819981AA81BB814817D6
:1016100059076A077B0729F48F819885C816D90670
:1016200000F5488359836A837B838B85833039F047
:1016300039E0440F551F661F771F3A95D1F79A017D
:10164000AB0161E1CE0197DE882319F083E08D8341
:101650002FC0CE019DDF882359F118861F8281E0BB
:101660008E838F8198858C159D0538F400DE8F81DF
:101670009885019698878F83F4CF6701E00EF11E5D
:10168000CE14DF0429F0F3DDF60181936F01F8CF6A
:101690008F819885800F911F98878F8329852223BA
:1016A00019F08115924010F0CE0108DE81E003C0F0
:1016B000CE01DFDD80E0DF91CF911F910F91FF9090
:1016C000EF90DF90CF900895EF92FF920F931F93CA
:1016D000790100E012E020E030E07DDF1F910F9102
:1016E000FF90EF900895CF92DF92EF92FF920F93C9
:1016F0001F93CF93DF931F921F92CDB7DEB78C015C
:10170000862F49835A83ACDD4981C42E5A81D52E58
:10171000E12CF12CF60181916F01A2DDFFEFEF1AB0
:10172000FF0AE11482E0F806A9F78FEF99DD8FEF49
:1017300097DD9DDDF80182878F71853031F081E181
:101740008583C80196DD80E001C081E00F900F9095
:10175000DF91CF911F910F91FF90EF90DF90CF908D
:1017600008950F931F93CF93DF93EC0189014115E7
:1017700051056105710511F482E12DC08B8583301F
:1017800039F089E0440F551F661F771F8A95D1F7FE
:101790009A01AB0168E1CE01EEDD882311F084E00F
:1017A0001AC0A8016EEFCE019EDF8823A9F068E57C
:1017B00072E0CE01C6DD811102C085E10CC020E0DF
:1017C00030E0A9016DE0CE01D6DD811103C04FDD0F
:1017D000882331F084E18D83CE014BDD80E003C0AE
:1017E000CE0147DD81E0DF91CF911F910F910895E8
:1017F00080E58093640E1092650E0895CF93DF9379
:10180000EC019C012A5F3F4F41E050E060E070E056
:101810008B8D9C8D0E946B158823A1F04F89588D6C
:10182000698D7A8D452B462B472B71F44E815F8154
:10183000688579854F8B588F698F7A8F8C81806806
:101840008C8302C080E001C081E0DF91CF910895D8
:10185000CF92DF92EF92FF921F93CF93DF93EC0131
:10186000CDDF811102C080E04AC0EB8DFC8DCE80BF
:10187000DF80E884F98482E0C81AD108E108F10821
:10188000058404C0CC0CDD1CEE1CFF1C0A94D2F7AE
:101890004685578560897189C40ED51EE61EF71EE0
:1018A000148181E0C81AD108E108F108112359F028
:1018B000C701B601610F711D811D911D5AD7882383
:1018C00091F21150F3CFEB8DFC8DC12C82E0D82E1C
:1018D000E12CF12C058404C0CC0CDD1CEE1CFF1C9B
:1018E0000A94D2F74B895C896D897E894C0D5D1D08
:1018F0006E1D7F1D4B8B5C8B6D8B7E8B81E0DF9132
:10190000CF911F91FF90EF90DF90CF900895CF93EC
:10191000DF93EC01462F6E857F8588899989EFD604
:10192000882341F08A8920E2829FC00111248159D5
:10193000914F02C080E090E0DF91CF910895282F71
:10194000FB018BE030E231938150E9F7A22FB92FF0
:1019500020E037E09D91992319F19E3219F0E8E0DB
:10196000F1E008C03A3011F128E03AE0F3CF3196C7
:101970004917E1F044914111FACF3217B8F04FED19
:10198000490F4E3598F441E0420FFB01E20FF11D83
:101990002FE9290F2A3108F490529083242FDACFAF
:1019A00081E0FB019081903209F480E008950F936B
:1019B0001F93CF93DF93EC018B018D81882311F06E
:1019C00080E03FC0FB0187898031B1F482E08D83E4
:1019D0001F8A188E198E1A8E408D518D60E070E02E
:1019E00095E0440F551F661F771F9A95D1F74B8BD3
:1019F0005C8B6D8B7E8B14C0803211F783E08D83FE
:101A0000FB01428D538D648D758D4F8B588F698F7F
:101A10007A8F9E012D5E3F4FC80153D7882381F2F4
:101A20001C8F0B8F81E08C831E821F821886198683
:101A30001A861B861C861D861E861F86188A198A92
:101A40001A8ADF91CF911F910F9108952F923F92A3
:101A50004F925F926F927F928F929F92AF92BF92BE
:101A6000CF92DF92EF92FF920F931F93CF93DF936A
:101A7000EC016B015A018D81811103C08FEF9FEF43
:101A8000D7C08C8180FFFACF4B895C896D897E89B4
:101A90008A859B85AC85BD852501612C712C8A01C9
:101AA0009B01081B190B2A0B3B0B0415150526057A
:101AB000370518F45A01A81AB90A25011E0126E0B3
:101AC000220E311C4114510409F47AC04A855B8509
:101AD0006C857D854A0181E09822ED818A019B0118
:101AE000F9E03695279517950795FA95D1F78B8DDF
:101AF0009C8DE23051F4FC01628D738D848D958D47
:101B0000600F711F821F931F3DC0FC0174807A9487
:101B1000702281149104C1F4711016C0452B462B1C
:101B2000472B49F48F89988DA98DBA8D8E839F8319
:101B3000A887B98709C04E815F8168857985910141
:101B40003DD6882309F49ACFEB8DFC8D6E817F8181
:101B5000888599856250710981099109058404C0BD
:101B6000660F771F881F991F0A94D2F7068517857D
:101B700020893189600F711F821F931F670D711DAE
:101B8000811D911D20E032E0281939093201241508
:101B9000350508F439012C8126FD04C06114F2E0FA
:101BA0007F0699F50091C9051091CA052091CB05D2
:101BB0003091CC05601771078207930719F425C08F
:101BC000C50136C0760183019401AB01BC0180914F
:101BD0006D0E90916E0EFFDC882309F44FCFC60C7A
:101BE000D71C04C0E81BF90BCE0EDF1E8A859B852F
:101BF000AC85BD85860D971DA11DB11D8A879B876C
:101C0000AC87BD87461857085DCF40E078D588235C
:101C100009F434CFC4018159914FD6019C01260D9E
:101C2000371DFC01E217F307E9F241914D93FACF1A
:101C3000DF91CF911F910F91FF90EF90DF90CF90A8
:101C4000BF90AF909F908F907F906F905F904F90DC
:101C50003F902F900895FF920F931F93CF93DF93A0
:101C60001F92CDB7DEB78C01FC018581823018F45C
:101C700080E090E033C0F801428553856485758526
:101C8000A5E07695679557954795AA95D1F7F42FD6
:101C9000FF70FF2E41E050E0BE016F5F7F4FC80133
:101CA000D5DE019719F4298130E002C02FEF3FEF14
:101CB0002F3F3F4FE9F2F8014285538564857585D2
:101CC000415E5F4F6F4F7F4F4287538764877587B1
:101CD000F0E2FF9EC00111248159914F0F90DF91D6
:101CE000CF911F910F91FF9008954F925F926F9245
:101CF0007F92AF92BF92CF92DF92EF92FF920F93BB
:101D00001F93CF93DF93EC016A017B012D81222386
:101D100009F456C08B899C89AD89BE8984179507C3
:101D2000A607B70708F44CC04DC08A859B85AC85D3
:101D3000BD85EB8DFC8DE585F0E03996AC01BD01EC
:101D400041505109610971090E2E04C076956795BD
:101D5000579547950A94D2F79701860101501109CA
:101D60002109310904C03695279517950795EA95FD
:101D7000D2F70417150726073707A8F58F89988D1E
:101D8000A98DBA8D8E839F83A887B98728013901D1
:101D90005E0186E0A80EB11C411451046104710477
:101DA00059F14E815F816885798595018B8D9C8D78
:101DB00005D591E0491A5108610871088111ECCFED
:101DC00080E01FC02230C1F0C114D104E104F1044D
:101DD00009F0ABCF1E821F82188619861A861B86D1
:101DE0001C861D860DC0892B8A2B8B2B39F2041B78
:101DF000150B260B370BCACFCA86DB86EC86FD8611
:101E000081E0DF91CF911F910F91FF90EF90DF90D4
:101E1000CF90BF90AF907F906F905F904F9008955C
:101E20000F931F93CF93DF93EC018D818823B9F13A
:101E30008C8187FF2FC061E0CE0169DD8C010097A6
:101E400071F18D81823048F44B895C896D897E897E
:101E5000F801448F558F668F778F4F89588D698D24
:101E60007A8DF801538F428F758B648BE091660EEB
:101E7000F091670E309759F0B8016A5E7F4FC80144
:101E800048961995F801808D918D938B828B8C816A
:101E90008F778C83DF91CF911F910F91F7C380E0F3
:101EA000DF91CF911F910F910895CF93DF93EC01B4
:101EB000B7DF882319F01D8281E001C080E0DF9147
:101EC000CF9108954F925F926F927F92AF92BF929F
:101ED000CF92DF92EF92FF920F931F93CF93DF93F6
:101EE00000D01F92CDB7DEB75C016A017B01FC0117
:101EF00085818130E9F4848181FF1AC0F5018389ED
:101F00009489A589B68984179507A607B70780F035
:101F1000892B8A2B8B2B09F472C0F50142845384E0
:101F200064847584B701A601C501DFDE811102C09A
:101F300080E066C0F501838D948DC114D104E10465
:101F4000F10469F44789508D618D728DD5D688234F
:101F500079F3F501178A108E118E128E37C0F501B4
:101F600046815781608571859E012F5F3F4F26D442
:101F70008823F1F249815A816B817C81F501838D3F
:101F8000948DFC012789203129F408EF1FEF20E010
:101F900030E004C008EF1FEF2FEF3FE0401751077C
:101FA0006207730798F4A8D6882309F4C1CFF50116
:101FB00046815781608571850FEF1FEF2FEF3FE05E
:101FC000838D948DE8D4882309F4B2CFF501C38AB8
:101FD000D48AE58AF68A848180688483C50120DFFB
:101FE000882309F4A5CFB701A6014C145D046E0443
:101FF0007F0410F4B301A201C50177DE01C081E0C6
:102000000F900F900F900F90DF91CF911F910F9134
:10201000FF90EF90DF90CF90BF90AF907F906F9048
:102020005F904F900895FF920F931F93CF93DF938C
:10203000EC01F42E80E2689FF0011124E159F14F88
:102040008385817129F0842F827411F080E051C062
:102050006A8B8091C9059091CA05A091CB05B0917A
:10206000CC058E879F87A88BB98B4489558960E002
:1020700070E0BA0155274427028D138D20E030E02F
:10208000402B512B622B732B4F8B588F698F7A8F7C
:102090008385887151F4048D158D268D378D0B8BBA
:1020A0001C8B2D8B3E8B81E00BC0803179F69E011D
:1020B0002D5E3F4F8B8D9C8D04D4882339F284E0B4
:1020C0008D838F2D8F708C831E821F8218861986B8
:1020D0001A861B861C861D86F6FE0AC040E050E06C
:1020E000BA01CE01DF91CF911F910F91FF90EACEFF
:1020F00081E0DF91CF911F910F91FF900895AF92F2
:10210000BF92CF92DF92EF92FF920F931F93CF93E4
:10211000DF93CDB7DEB72B970FB6F894DEBF0FBEB7
:10212000CDBF7C016B01CA01B22EF70125812111BF
:10213000B3C0BE016F5F7F4F02DC882309F4ACC0DF
:10214000F601838D948DF701948F838FF6011682AB
:102150001782108611861286138614861586A12C86
:10216000F601028513852485358583899489A5899F
:10217000B689081719072A073B07E0F545E03695A9
:102180002795179507954A95D1F70F70C60163DD1E
:10219000009709F481C0FC012081222311F0253E23
:1021A000B9F4A1100EC0F701028B4091C9055091FE
:1021B000CA056091CB057091CC0546875787608B27
:1021C000718BFC018081AA24A3948111C9CF12C014
:1021D0004BE050E0BC01CE0101960E94B121892B59
:1021E00009F0BECF8B2D8073803309F455C04B2D81
:1021F000602F4FC08B2D8271823109F04DC0AA2013
:1022000039F061E0C70183DB8C01009771F444C0B1
:10221000F6018581823009F43FC0C60119DB8823AD
:10222000D9F1F701128A0FE61EE080E2F80111925F
:102230008A95E9F78BE0FE013196D80101900D9265
:102240008A95E1F7E091660EF091670E309739F0CC
:10225000B801625F7F4FC8014096199509C081E2BD
:1022600098E2F801918B808B80E098E097878687D1
:10227000F80180899189938B828B918F808F8685DD
:102280009785978B868B02D2882331F04B2DF701EF
:102290006289C701C8DE01C080E02B960FB6F894B2
:1022A000DEBF0FBECDBFDF91CF911F910F91FF9089
:1022B000EF90DF90CF90BF90AF900895CF93DF93D2
:1022C000EC0140E050E0BA01FDDD882361F061E0FF
:1022D000CE011DDB009739F025EEFC0120831D8225
:1022E000DF91CF91D3C180E0DF91CF910895CF935B
:1022F000DF93CDB7DEB76D970FB6F894DEBF0FBE94
:10230000CDBFAB011C821B822EE736E03A832983C6
:102310001E8222E0BC01CE010196F1DE882321F06D
:10232000CE010196CBDF01C080E06D960FB6F89428
:10233000DEBF0FBECDBFDF91CF9108952F923F92A8
:102340004F925F926F927F928F929F92AF92BF92C5
:10235000CF92DF92EF92FF920F931F93CF93DF9371
:1023600000D01F921F92CDB7DEB78C017B013A01DE
:10237000DC0115968C9115978130C1F414968C91DF
:1023800081FF14C082FF1AC0F8014389548965890E
:10239000768982859385A485B58584179507A607D8
:1023A000B70761F0C801A1DC811108C081E090E0AD
:1023B000F8019383828380E090E040C163017FC095
:1023C000D8015B968D919C915C97FC01F481F15052
:1023D000B501A40129E076956795579547952A950B
:1023E000D1F7F423FD8321E09222FF2309F473C087
:1023F00080E092E08819990956018C159D0508F432
:102400005C01D8015B96ED91FC915C9716962D903E
:102410003D904D905C901997B2E02B1A310841081D
:102420005108058404C0220C331C441C551C0A941A
:10243000D2F786859785A089B189280E391E4A1E54
:102440005B1EED812E0E311C411C511CA114F2E0CB
:10245000BF0609F085C08091C9059091CA05A09179
:10246000CB05B091CC0582159305A405B50559F4AB
:102470008FEF9FEFDC018093C9059093CA05A0936D
:10248000CB05B093CC059701B201A10180916D0EEF
:1024900090916E0E66D9882309F488CF9EEFF91AC1
:1024A000CA18DB08F80182859385A485B5858A0D55
:1024B0009B1DA11DB11D82879387A487B587D80175
:1024C0001A968D909D90AD90BC901D97C114D1042B
:1024D00009F076CF86C08114910409F089CF169651
:1024E0004D915D916D917C91199741155105610553
:1024F000710559F457968D919D910D90BC91A02D29
:102500000097A105B10531F520C09E012F5F3F4F17
:1025100055D1882309F450CF89819A81AB81BC8140
:10252000F801238D348DF9012789203129F448EFF2
:102530005FEF60E070E004C048EF5FEF6FEF7FE0B7
:1025400084179507A607B70728F0C80157D9811146
:102550004FCF2CCFF80186839783A087B18748CFD0
:102560008114910421F5D8011A964D915D916D91D8
:102570007C911D9753968D919D910D90BC91A02DAE
:10258000481759076A077B0790F080D0882309F421
:102590000DCF2092C9053092CA054092CB055092CA
:1025A000CC0580916C0E816080936C0E07C041E079
:1025B000C201B101A4D0882309F4F8CEC401815925
:1025C000914FD7019C012A0D3B1DFC01E217F30737
:1025D00019F04D914193FACFE81BF90BEE0EFF1E57
:1025E0005FCF53968D919D910D90BC91A02DF801D8
:1025F000248188159905AA05BB0538F4838A948A35
:10260000A58AB68A206824830CC08091660E9091BA
:10261000670E892B31F06114710419F02068F801FC
:102620002483D80114968C9183FD02C0C30106C097
:10263000C801F6DB882309F4B9CEF8CF0F900F90CC
:102640000F900F900F90DF91CF911F910F91FF90FE
:10265000EF90DF90CF90BF90AF909F908F907F9042
:102660006F905F904F903F902F900895CF93DF939E
:102670001F92CDB7DEB7698341E050E0BE016F5FC6
:102680007F4F5CDE0F90DF91CF91089580916C0EAB
:10269000882389F14091C9055091CA056091CB0505
:1026A0007091CC052FE63EE080916D0E90916E0EFC
:1026B00058D8882311F14091680E5091690E6091AD
:1026C0006A0E70916B0E411551056105710589F017
:1026D0002FE63EE080916D0E90916E0E42D88823D9
:1026E00061F01092680E1092690E10926A0E1092AC
:1026F0006B0E10926C0E81E0089580E00895CF92E9
:10270000DF92EF92FF92CF936B017C01C42F8091F7
:10271000C9059091CA05A091CB05B091CC058C1547
:102720009D05AE05BF05C9F0B1DF811102C080E093
:102730001AC02FE63EE0B701A60180916D0E909180
:102740006E0E0E94640B882391F3C092C905D0924B
:10275000CA05E092CB05F092CC0580916C0E8C2BD3
:1027600080936C0E81E0CF91FF90EF90DF90CF903F
:102770000895CF92DF92EF92FF926B017C0186DF8A
:102780008823B1F0EFE6FEE0119280E1EF36F80722
:10279000D9F7C092C905D092CA05E092CB05F09254
:1027A000CC0580916C0E816080936C0E81E001C03D
:1027B00080E0FF90EF90DF90CF9008958F929F92EE
:1027C000AF92BF92CF92DF92EF92FF920F931F933F
:1027D000CF93DF938C016A017B01E901FC018185C4
:1027E0009285A385B4850196A11DB11D8417950717
:1027F000A607B70710F480E057C0F8014389548951
:10280000658976898789803129F4BB27AF2D9E2D74
:102810008D2D09C0D701C60127E0B695A7959795DC
:1028200087952A95D1F74C015D01840E951EA61E51
:10283000B71EC501B4018090C9059090CA05A0904B
:10284000CB05B090CC05681579058A059B0589F400
:10285000F8018789803191F4DD24EE24FF24F6010C
:10286000EE0FFF1FE159F14F80819181A0E0B0E0B0
:1028700016C040E044DF8111EBCFBDCFE894C7F82C
:10288000DD24EE24FF24F601EE0FFF1FEE0FFF1FE5
:10289000E159F14F80819181A281B381BF7088831A
:1028A0009983AA83BB8381E0DF91CF911F910F9120
:1028B000FF90EF90DF90CF90BF90AF909F908F9060
:1028C00008954F925F926F927F92AF92BF92CF9294
:1028D000DF92EF92FF920F931F93CF93DF9300D07D
:1028E0001F92CDB7DEB78C0149835A836B837C83FB
:1028F0005901C12CD12C7601412C42E0542E612C7F
:10290000712C49815A816B817C819E012F5F3F4FE1
:10291000C80154DF882359F1D301C201F8010584AD
:1029200004C0880F991FAA1FBB1F0A94D2F7C80EB4
:10293000D91EEA1EFB1E49815A816B817C818789E1
:10294000803129F488EF9FEFA0E0B0E004C088EF69
:102950009FEFAFEFBFE0481759076A077B0788F280
:10296000F501C082D182E282F38281E001C080E081
:102970000F900F900F900F90DF91CF911F910F91BB
:10298000FF90EF90DF90CF90BF90AF907F906F90CF
:102990005F904F9008954F925F926F927F928F92C7
:1029A0009F92AF92BF92CF92DF92EF92FF920F93DE
:1029B0001F93CF93DF93EC016A017B01280139015A
:1029C000423051056105710508F473C049855A8587
:1029D0006B857C854F5F5F4F6F4F7F4F4C155D055B
:1029E0006E057F0508F465C08B889C88AD88BE881D
:1029F0008F89803129F477276F2D5E2D4D2D09C0E9
:102A0000B701A601E7E07695679557954795EA9552
:102A1000D1F7840E951EA61EB71E4091C905509190
:102A2000CA056091CB057091CC0584169506A60663
:102A3000B70671F48F89803191F4DD24EE24FF24F0
:102A4000F601EE0FFF1FE159F14F5182408217C08E
:102A500040E0C501B40153DE8111ECCF2AC0E894F7
:102A6000C7F8DD24EE24FF24F601EE0FFF1FEE0F62
:102A7000FF1FE159F14F408251826282738280913F
:102A80006C0E816080936C0E8A89823080F08D811B
:102A90009E81AF81B885880D991DAA1DBB1D8093AD
:102AA000680E9093690EA0936A0EB0936B0E81E04E
:102AB00001C080E0DF91CF911F910F91FF90EF90C7
:102AC000DF90CF90BF90AF909F908F907F906F904E
:102AD0005F904F9008952F923F924F925F926F9226
:102AE0007F929F92AF92BF92CF92DF92EF92FF922E
:102AF0000F931F93CF93DF93CDB7DEB760970FB6D9
:102B0000F894DEBF0FBECDBF5C014D875E876F8737
:102B1000788B1901D9014D905D906D907C90411496
:102B200051046104710431F0BFEF4B1A5B0A6B0A68
:102B30007B0A10C0FC014080518062807380992420
:102B400093940D851E852F85388901301105210547
:102B5000310509F0912CD50119962D913D914D919A
:102B60005C911C972F5F3F4F4F4F5F4F29873A87EC
:102B70004B875C87730162011D821E821F8218864B
:102B8000F50181859285A385B4850D811E812F81F4
:102B90003885081719072A073B0708F054C029850C
:102BA0003A854B855C852C153D054E055F0550F437
:102BB000A2E0CA2ED12CE12CF12CB2E04B2E512CEC
:102BC000612C712C9E012F5F3F4FB701A601C501FB
:102BD000F5DD8823C1F149815A816B817C81D70160
:102BE000C6010196A11DB11D452B462B472B19F09F
:102BF0002C013D010FC0AC01BD0144195509660906
:102C000077090D851E852F85388940175107620782
:102C1000730779F02D813E814F8158852F5F3F4F9B
:102C20004F4F5F4F2D833E834F8358876C017D014B
:102C3000A7CF0FEF1FEF2FEF3FE0B701A601C501B0
:102C4000AADE811117C080E03FC0D701C6010197FD
:102C5000A109B1098D839E83AF83B887970186014F
:102C6000AC01BD01C50197DE882369F3CD80DE800C
:102C7000EF80F8844C145D046E047F0430F3D101BE
:102C80004D915D916D917C914115510561057105E5
:102C900099F4F1014082518262827382992099F005
:102CA000FFEF4F1A5F0A6F0A7F0AD5014D925D92BE
:102CB0006D927C92139707C093018201C5016BDE70
:102CC0008111E7CFC0CF81E060960FB6F894DEBFE8
:102CD0000FBECDBFDF91CF911F910F91FF90EF906D
:102CE000DF90CF90BF90AF909F907F906F905F905C
:102CF0004F903F902F900895AF92BF92CF92DF9266
:102D0000EF92FF920F931F93CF93DF9300D01F9208
:102D1000CDB7DEB75C016A017B0182E090E0A0E004
:102D2000B0E0F50180839183A283B3839E012F5F7E
:102D30003F4FB701A601C50141DD882309F100E03D
:102D400010E09801B701A601C50125DE8823C1F076
:102D5000C980DA80EB80FC80F5018789803129F415
:102D600088EF9FEFA0E0B0E004C088EF9FEFAFEFE7
:102D7000BFE0C816D906EA06FB06C0F281E001C032
:102D800080E00F900F900F900F90DF91CF911F91E7
:102D90000F91FF90EF90DF90CF90BF90AF9008958C
:102DA0008F929F92AF92BF92CF92DF92EF92FF925B
:102DB0000F931F93CF93DF93EC01142F70936E0E3C
:102DC00060936D0E442339F1453010F080E0EDC082
:102DD00040E060E070E0CB0192DC8823B9F320E1B1
:102DE000129FF0011124E35EFF4E80818F7771F70F
:102DF00084859585A685B78584369105A105B1059D
:102E000028F3C084D184E284F384C114D104E104A2
:102E1000F10421F4DBCFC12CD12C760140E0C701B5
:102E2000B6016DDC882391F280917A0E90917B0E31
:102E30008115924059F630917F0E332339F28091FB
:102E40007D0E90917E0E892B09F4C0CF20917C0ECF
:102E5000222309F4BBCF3A8B2C831D8630E041E05E
:102E600050E06D85062FCA01062E02C0880F991FFB
:102E70000A94E2F72817390731F081E0860F8D8731
:102E8000683078F3A3CF2091850E3091860E2115FE
:102E9000310519F040E050E008C02091930E3091C8
:102EA000940E4091950E5091960E2D833E834F8344
:102EB000588780917D0E90917E0E46015701880EB5
:102EC000991EA11CB11C8B8A9C8AAD8ABE8AE09196
:102ED000800EF091810EF98FE88FA0917F0EB0E007
:102EE0000E946D20680D791D8A1D9B1D6A8F7B8F46
:102EF0008C8F9D8F15E0EE0FFF1F1A95E1F7E150C3
:102F0000FE4FEF2FFF27E695DC01CB018E0F9F1FB1
:102F1000A11DB11D8E879F87A88BB98B8090820ED3
:102F20009090830E8114910419F0A12CB12C08C04B
:102F300080908F0E9090900EA090910EB090920E77
:102F4000A7019601281B390B4A0B5B0BDA01C9015B
:102F5000880D991DAA1DBB1D04C0B695A795979510
:102F600087950A95D2F789879A87AB87BC87853F73
:102F70003FE09307A105B10510F48CE014C0853F34
:102F80009F4FA105B10510F480E10DC080919B0E0B
:102F900090919C0EA0919D0EB0919E0E8A8F9B8F5A
:102FA000AC8FBD8F80E28F8B81E0DF91CF911F913D
:102FB0000F91FF90EF90DF90CF90BF90AF909F90D8
:102FC0008F9008958F929F92AF92BF92CF92DF928F
:102FD000EF92FF920F931F93CF93DF931F921F9255
:102FE000CDB7DEB78C0149832A83660F771FF801BE
:102FF000EA5AFF4FE080F180EE0CFF1CF801CF0190
:10300000801B910B8E159F0514F41192F8CF8981C6
:10301000F801E60FF71F81838A818083680184E5C8
:10302000C80ED11C60E0F60180812AD45801F2E577
:10303000AF0EB11C480180E5880E911C1E141F04C0
:1030400074F4E1E0EE1AF108F801EE0DFF1D2081A5
:1030500041E0F5016081F401808147D4EFCF61E068
:10306000F60180810F900F90DF91CF911F910F910A
:10307000FF90EF90DF90CF90BF90AF909F908F9098
:10308000FFC377FD0FC0FC01EA5AFF4F2081318159
:10309000621773073CF4442311F020E001C021E0E3
:1030A0004CE090CF089577FD0EC0FC01EA5AFF4F27
:1030B000208131816217730734F44830510518F4C8
:1030C000242F4BE07FCF089577FD0EC0FC01EA5A14
:1030D000FF4F208131816217730734F4403151056D
:1030E00018F4242F4AE06ECF0895CF92DF92EF922A
:1030F000FF920F931F93CF93DF937C018B0177FD9A
:1031000020C0FC01EA5AFF4F80819181681779073E
:10311000C4F46B0123E0CC0CDD1C2A95E1F7C0E080
:10312000D0E0CE0CDF1CF601EC0FFD1F108A4C2FF7
:103130004F5F20E0B801C70145DF2196C830D105B7
:1031400091F7DF91CF911F910F91FF90EF90DF905A
:10315000CF9008954F925F927F928F929F92AF92FD
:10316000BF92CF92DF92EF92FF920F931F93CF9374
:10317000DF931F92CDB7DEB72C01762E7C0180E560
:10318000E80EF11CF701608371834201F2E58F0EB6
:10319000911CF401518340836201F4E5CF0ED11CF0
:1031A000F60131832083C8010197089710F008E0E9
:1031B00010E05201F6E5AF0EB11CF501118300835A
:1031C00061E0872D798323D361E0F40180811FD3EF
:1031D00061E0F60180811BD361E0F601808150D36C
:1031E000F70170827981718380E090E0F201E80F4D
:1031F000F91F108A019680349105C1F700E010E0B4
:10320000F5018081918108171907CCF420E04FE087
:10321000B801C201D7DE47E050E0B801C20143DF88
:1032200020E049E0B801C201CDDEB801C2015DDF96
:1032300041E0B801C20125DF0F5F1F4FE1CF0F90C2
:10324000DF91CF911F910F91FF90EF90DF90CF9082
:10325000BF90AF909F908F907F905F904F90089518
:1032600077FD19C0FC01EA5AFF4F0190F081E02D73
:103270006E177F0784F44830510568F4FB01A3E022
:10328000EE0FFF1FAA95E1F7E80FF91FE40FF51FF6
:10329000208B4F5F97CE08951F920F920FB60F921B
:1032A00011240BB60F922F933F934F935F936F931D
:1032B0007F938F939F93AF93BF93EF93FF93E0918F
:1032C000B110F091B210309709F451C0868DA685E7
:1032D000B785958581FF04C08C91892329F447C067
:1032E0008C91892309F043C0A389B4899C91858975
:1032F000809589238C93868997890197F1F7208D92
:10330000318DA685B785758558E040E0C9010197E4
:10331000F1F7842F90E095958795482F6C9167235E
:1033200009F04068515091F7868D81FD409580915C
:10333000701090E001968F73992720916F102817D5
:1033400049F0A0917010B0E0AF58BF4E4C938093FD
:10335000701003C0868D8160868F828D938D01975A
:10336000F1F7A389B4898C919589892B8C93FF916E
:10337000EF91BF91AF919F918F917F916F915F91ED
:103380004F913F912F910F900BBE0F900FBE0F905A
:103390001F901895CF93CFB7F8948091B6108111F4
:1033A00023C0E9EDF1E08491E3E9F1E09491E82FA5
:1033B000F0E0EE0FFF1FEC5FFD4FA591B4918C91F3
:1033C000892319F461E085E35BD261E085E31FD2D4
:1033D0008CB580618CBD8CB580648CBD61E084E36C
:1033E00016D261E083E313D28091B6108F5F809391
:1033F000B610CFBFCF9108950F931F93CF93DF9354
:10340000EC01662351F0FAD069837A838B839C8325
:10341000DF91CF911F910F910895F0D009811A810A
:103420002B813C81601B710B820B930B6436710501
:103430008105910540F763E070E080E090E00DD1F8
:10344000ECCF60E0D9CFFC0113AA14AA15AA16AAE2
:103450001182128213821482411551056105710592
:1034600019F0CB01BA01F9C00895FB01BA01A90115
:10347000DC01D296FC93EE93D19726E0CF017FC377
:103480001F93CF93DF93EC01162F62E876E089A9B2
:103490009AA976D54AE050E0612F89A99AA9EED57C
:1034A00069E876E089A99AA96BD562E370E080E0CB
:1034B00090E0DF91CF911F91D0C01F93CF93DF9306
:1034C000EC01162F8D81882381F189A99AA9DC014D
:1034D000ED91FC910480F581E02D1995892BA9F3DC
:1034E00007C02637310511F12835310509F41D8251
:1034F00089A99AA9DC01ED91FC910480F581E02D68
:103500001995181619068CF489A99AA9DC01ED9170
:10351000FC910680F781E02D19959C013327233615
:103520003105F9F6612FCE01ABDF83E6DF91CF9154
:103530001F9108950F931F93CF93DF931F92CDB7E1
:10354000DEB78C01662341F081E0F801858360E0FD
:10355000C8014983B2DF4981F80145830F90DF91AB
:10356000CF911F910F9108951F920F920FB60F9256
:1035700011242F933F938F939F93AF93BF93809189
:10358000EF109091F010A091F110B091F2103091E5
:10359000EE1023E0230F2D3720F40196A11DB11D5D
:1035A00005C026E8230F0296A11DB11D2093EE1041
:1035B0008093EF109093F010A093F110B093F2105D
:1035C0008091F3109091F410A091F510B091F61045
:1035D0000196A11DB11D8093F3109093F410A09358
:1035E000F510B093F610BF91AF919F918F913F91DD
:1035F0002F910F900FBE0F901F9018952FB7F89432
:103600006091EF107091F0108091F1109091F21094
:103610002FBF08953FB7F8948091F3109091F41064
:10362000A091F510B091F61026B5A89B05C02F3FCC
:1036300019F00196A11DB11D3FBF6627782F892F74
:103640009A2F620F711D811D911D42E0660F771F39
:10365000881F991F4A95D1F70895CF92DF92EF9274
:10366000FF92CF93DF936B017C01D4DFEB01C11498
:10367000D104E104F10479F007D5CCDF6C1B7D0B9C
:10368000683E7340A0F381E0C81AD108E108F10850
:10369000C851DC4FECCFDF91CF91FF90EF90DF90DE
:1036A000CF900895789484B5826084BD84B581609C
:1036B00084BD85B5826085BD85B5816085BDEEE63A
:1036C000F0E0808181608083E1E8F0E01082808119
:1036D00082608083808181608083E0E8F0E0808187
:1036E00081608083E1EBF0E0808184608083E0EBA7
:1036F000F0E0808181608083E1E9F0E08081826098
:103700008083808181608083E0E9F0E08081816056
:103710008083E1EAF0E08081826080838081816043
:103720008083E0EAF0E0808181608083E1E2F1E083
:10373000808182608083808181608083E0E2F1E02B
:10374000808181608083EAE7F0E08081846080830B
:1037500080818260808380818160808380818068B5
:1037600080831092C100089590E0FC013197E2310E
:10377000F10508F04BC0EE58FF4FA9C480918000BE
:103780008F7703C0809180008F7D809380000895A3
:1037900080918000877FF9CF84B58F7702C084B590
:1037A0008F7D84BD08958091B0008F7703C0809194
:1037B000B0008F7D8093B0000895809190008F7746
:1037C00007C0809190008F7D03C080919000877F1B
:1037D0008093900008958091A0008F7707C080911A
:1037E000A0008F7D03C08091A000877F8093A00000
:1037F0000895809120018F7707C0809120018F7DEF
:1038000003C080912001877F809320010895CF938A
:10381000DF9390E0FC01E25AFE4F2491FC01EC554D
:10382000FE4F8491882349F190E0880F991FFC0195
:10383000EC5FFD4FA591B49186519E4FFC01C5915F
:10384000D4919FB7611108C0F8948C912095822380
:103850008C93888182230AC0623051F4F8948C9151
:10386000322F309583238C938881822B888304C0E8
:10387000F8948C91822B8C939FBFDF91CF91089508
:103880000F931F93CF93DF931F92CDB7DEB7282FEF
:1038900030E0F901E85EFE4F8491F901E25AFE4FF3
:1038A0001491F901EC55FE4F04910023C1F08823D7
:1038B00019F0698359DF6981E02FF0E0EE0FFF1FF7
:1038C000E651FE4FA591B4919FB7F8948C91611188
:1038D00003C01095812301C0812B8C939FBF0F9053
:1038E000DF91CF911F910F910895BF92CF92DF92F8
:1038F000EF92FF920F931F93CF93DF93C82ED62E94
:10390000B42EC7E0D0E0022F10E087E0E82EF12CC3
:10391000B1100AC0F701EC1BFD0BB80102C0759590
:103920006795EA95E2F707C0B8010C2E02C07595BD
:1039300067950A94E2F7617077278C2DA1DF61E02B
:103940008D2D9EDF60E08D2D9BDF219708F7DF91A5
:10395000CF911F910F91FF90EF90DF90CF90BF908C
:103960000895FC01818D228D90E0805C9F4F821B29
:1039700091098F7399270895FC01918D828D981775
:1039800031F0828DE80FF11D858D90E008958FEF65
:103990009FEF0895FC01918D828D981761F0828DC3
:1039A000DF01A80FB11D5D968C91928D9F5F9F7373
:1039B000928F90E008958FEF9FEF08958EE79EE13C
:1039C000892B39F080E090E0892B19F097D1811193
:1039D00024C089E29FE1892B39F080E090E0892BB7
:1039E00019F037D281111CC080E090E0892B41F0A2
:1039F00080E090E0892B21F00E940000811113C02B
:103A000080E090E0892BA1F080E090E0892B81F0AC
:103A10000E94000081110AC008950E940000D9CFC1
:103A20000E940000E1CF0E940000EACF0C94000049
:103A30000895FC01848DDF01A80FB11DA35ABF4F6B
:103A40002C91848D90E001968F739927848FA6899D
:103A5000B7892C93A089B1898C9180648C93938DC4
:103A6000848D981306C00288F389E02D80818F7DB4
:103A700080830895CF93DF93EC01888D8823C1F074
:103A8000EA89FB89808185FD05C0A889B9898C9167
:103A900086FD0EC00FB607FCF5CF808185FFF2CF03
:103AA000A889B9898C9185FFEDCFCE01C2DFE8CF1F
:103AB000DF91CF910895CF92DF92FF920F931F93E2
:103AC000CF93DF931F92CDB7DEB76C0181E0D601B3
:103AD00058968C9358975B969C915B975C968C91CB
:103AE0005C97981307C05096ED91FC915197808197
:103AF00085FD2DC0F601038D10E00F5F1F4F0F7382
:103B00001127F02EF601848DF81210C00FB607FCB5
:103B1000F9CFD6015096ED91FC915197808185FFA8
:103B2000F1CFC601698385DF6981ECCF838DE80F12
:103B3000F11DE35AFF4F6083D6015B960C935B97B0
:103B40005296ED91FC915397808180620CC0D60112
:103B50005696ED91FC91579760835096ED91FC91AC
:103B6000519780818064808381E090E00F90DF91A5
:103B7000CF911F910F91FF90DF90CF900895BF924A
:103B8000CF92DF92EF92FF92CF93DF93EC016A0125
:103B90007B01B22EE889F98982E08083411581EEAC
:103BA00058076105710599F060E079E08DE390E0D8
:103BB000A70196016AD22150310941095109569550
:103BC000479537952795211580E1380790F0E889CA
:103BD000F989108260E874E88EE190E0A70196010F
:103BE00054D22150310941095109569547953795CD
:103BF0002795EC85FD853083EE85FF852083188E23
:103C0000EC89FD89B082EA89FB89808180618083AB
:103C1000EA89FB89808188608083EA89FB898081C9
:103C200080688083EA89FB8980818F7D8083DF9132
:103C3000CF91FF90EF90DF90CF90BF9008951F92AB
:103C40000F920FB60F9211240BB60F922F938F93F2
:103C50009F93EF93FF93E0910711F09108118081FA
:103C6000E0910D11F0910E1182FD12C090818091B2
:103C700010118F5F8F7320911111821751F0E09115
:103C80001011F0E0E950FF4E958F8093101101C0A4
:103C90008081FF91EF919F918F912F910F900BBE9B
:103CA0000F900FBE0F901F9018951F920F920FB696
:103CB0000F9211240BB60F922F933F934F935F9364
:103CC0006F937F938F939F93AF93BF93EF93FF93E4
:103CD00087EF90E1AEDEFF91EF91BF91AF919F91A1
:103CE0008F917F916F915F914F913F912F910F90A5
:103CF0000BBE0F900FBE0F901F90189587EF90E1AD
:103D000030DE21E0892B09F420E0822F0895109203
:103D1000FA101092F91088EE93E0A0E0B0E08093E2
:103D2000FB109093FC10A093FD10B093FE108EED4D
:103D300096E09093F8108093F71085EC90E09093C4
:103D400004118093031184EC90E09093061180930A
:103D5000051180EC90E0909308118093071181EC9D
:103D600090E090930A118093091182EC90E0909377
:103D70000C1180930B1186EC90E090930E118093C0
:103D80000D11109210111092111110921211109227
:103D9000131108951F920F920FB60F9211240BB6B4
:103DA0000F922F938F939F93EF93FF93E091A41122
:103DB000F091A5118081E091AA11F091AB1182FDE3
:103DC00012C090818091AD118F5F8F732091AE11E1
:103DD000821751F0E091AD11F0E0EC56FE4E958F58
:103DE0008093AD1101C08081FF91EF919F918F91E0
:103DF0002F910F900BBE0F900FBE0F901F90189534
:103E00001F920F920FB60F9211240BB60F922F93A1
:103E10003F934F935F936F937F938F939F93AF9352
:103E2000BF93EF93FF9384E991E103DEFF91EF915C
:103E3000BF91AF919F918F917F916F915F914F91C2
:103E40003F912F910F900BBE0F900FBE0F901F90C0
:103E5000189584E991E185DD21E0892B09F420E0C2
:103E6000822F0895109297111092961188EE93E088
:103E7000A0E0B0E08093981190939911A0939A11CB
:103E8000B0939B118EED96E09093951180939411D1
:103E90008DEC90E09093A1118093A0118CEC90E0B8
:103EA0009093A3118093A21188EC90E09093A511B8
:103EB0008093A41189EC90E09093A7118093A611B0
:103EC0008AEC90E09093A9118093A8118EEC90E079
:103ED0009093AB118093AA111092AD111092AE1174
:103EE0001092AF111092B01108950895DBDBFDDF41
:103EF0000E94A402CEEDDCE10E9481032097E1F351
:103F00005DDDFACFCF92DF92EF92FF920F931F9376
:103F1000CF93DF936C017A01EB01E60EF71E00E010
:103F200010E0CE15DF0561F06991D601ED91FC91AD
:103F30000190F081E02DC6011995080F191FF1CFEE
:103F4000C801DF91CF911F910F91FF90EF90DF900B
:103F5000CF9008956115710581F0DB010D9000206F
:103F6000E9F7AD0141505109461B570BDC01ED91BA
:103F7000FC910280F381E02D199480E090E0089597
:103F8000E9CFDC01ED91FC910190F081E02D1994D5
:103F90006FE876E0DFCF0F931F93CF93DF93EC01B1
:103FA000D9DF8C01CE01F4DF800F911FDF91CF911B
:103FB0001F910F9108958F929F92AF92BF92CF92CF
:103FC000DF92EF92FF920F931F93CF93DF93CDB7C2
:103FD000DEB7A1970FB6F894DEBF0FBECDBF7C0150
:103FE000C42EE52FCB01D22E19A221E02D1510F001
:103FF0002AE0D22E8E010F5D1F4F8D2C912CA12C0B
:10400000B12C6C2D7E2FA50194013FD08C2DD29E1A
:1040100080191124015011098A3014F4805D01C007
:10402000895CF8018083211531054105510521F096
:10403000C22EE32FCA01E5CFB801C7018BDFA196DD
:104040000FB6F894DEBF0FBECDBFDF91CF911F91A9
:104050000F91FF90EF90DF90CF90BF90AF909F9027
:104060008F9008952115310541F4DC01ED91FC910B
:104070000190F081E02D642F19949DCF9A01462F75
:1040800050E060E070E0EECF0895A1E21A2EAA1B86
:10409000BB1BFD010DC0AA1FBB1FEE1FFF1FA217F8
:1040A000B307E407F50720F0A21BB30BE40BF50BF5
:1040B000661F771F881F991F1A9469F7609570957E
:1040C000809590959B01AC01BD01CF010895EE0F45
:1040D000FF1F0590F491E02D19940DD0A59F900D30
:1040E000B49F900DA49F800D911D112408950790F9
:1040F000F691E02D1994A29FB001B39FC001A39F38
:10410000700D811D1124911DB29F700D811D112410
:10411000911D0895CF93DF938230910510F482E0D2
:1041200090E0E0913312F091341220E030E0A0E012
:10413000B0E0309739F14081518148175907B8F004
:104140004817590771F482819381109729F01396CB
:104150009C938E9312972CC09093341280933312B9
:1041600027C02115310531F04217530718F0A90176
:10417000DB0101C0EF019A01BD01DF010280F38183
:10418000E02DD7CF21153105F9F0281B390B24304C
:10419000310580F48A819B816115710521F0FB0155
:1041A0009383828304C09093341280933312FE0170
:1041B000329644C0FE01E20FF31F81939193225087
:1041C0003109398328833AC020913112309132125B
:1041D000232B41F4209102023091030230933212DA
:1041E00020933112209100023091010221153105F6
:1041F00041F42DB73EB74091040250910502241BB3
:10420000350BE0913112F0913212E217F307A0F46E
:104210002E1B3F0B2817390778F0AC014E5F5F4F1C
:104220002417350748F04E0F5F1F5093321240930A
:1042300031128193919302C0E0E0F0E0CF01DF9171
:10424000CF910895CF93DF93009709F487C0FC01C5
:10425000329713821282C0913312D0913412209778
:1042600081F420813181280F391F80913112909182
:1042700032128217930779F5F0933212E0933112DC
:104280006DC0DE0120E030E0AE17BF0750F412969B
:104290004D915C9113979D014115510509F1DA018A
:1042A000F3CFB383A28340815181840F951F8A1776
:1042B0009B0771F48D919C911197840F951F029625
:1042C0009183808312968D919C911397938382831F
:1042D0002115310529F4F0933412E09333123EC0D6
:1042E000D9011396FC93EE9312974D915D91A40F13
:1042F000B51FEA17FB0779F480819181840F951F20
:104300000296D90111969C938E9382819381139684
:104310009C938E931297E0E0F0E08A819B81009756
:1043200019F0FE01EC01F9CFCE0102962881398106
:10433000820F931F209131123091321228173907C2
:1043400069F4309729F4109234121092331202C09B
:1043500013821282D0933212C0933112DF91CF9127
:104360000895FB01DC0104C08D910190801921F4B6
:1043700041505040C8F7881B990B0895FC0181916A
:10438000861721F08823D9F7992708953197CF010F
:104390000895FB01DC014150504048F001900D921E
:1043A0000020C9F701C01D9241505040E0F7089528
:0443B000F894FFCFAF
:1043B4000000351280000000000000000000000032
:1043C4000000F600F600000000000000E00000001D
:1043D400E00000002800FE002800FE002800000085
:1043E4006400D60054000800C200CC00100026006F
:1043F400C6004C00B20092006C000A0000000000ED
:10440400E0000000000000003800440082000000CA
:104414000000820044003800000088005000F800CA
:1044240050008800080008003E0008000800000052
:10443400000005000600000008000800080008004D
:1044440008000000000006000600000002000C0046
:104454001000600080007C008A009200A2007C00B2
:1044640000004200FE0002000000420086008A00B4
:104474009200620044008200920092006C001000DE
:1044840030005000FE001000E400A200A200A200D0
:104494009C003C005200920092000C0080008600B8
:1044A4009800E00080006C009200920092006C0082
:1044B4006000920092009400780000000000360032
:1044C4003600000000000000350036000000100037
:1044D400280044008200000028002800280028004A
:1044E40028000000820044002800100040008000E2
:1044F4008A00900060007C008200BA00BA0062006A
:104504003E004800880048003E00FE0092009200F1
:1045140092006C007C008200820082004400FE0055
:104524008200820082007C00FE00920092009200D1
:104534008200FE0090009000900080007C008200C9
:1045440082008A004E00FE00100010001000FE00E1
:1045540082008200FE008200820084008200FC004F
:1045640080008000FE001000280044008200FE004D
:104574000200020002000200FE0040002000400091
:10458400FE00FE00600010000C00FE007C008200B3
:10459400820082007C00FE00900090009000600089
:1045A4007C008200820086007E00FE00900098005D
:1045B4009400620064009200920092004C0080001B
:1045C4008000FE0080008000FC0002000200020067
:1045D400FC00F800040002000400F800FC000200E3
:1045E4000C000200FC00C600280010002800C600D1
:1045F400C00020001E002000C00086008A00920037
:10460400A200C20000000000FE00820000000000C2
:1046140000000000000000008000600010000C009A
:104624000200200040008000400020000100010042
:104634000100010001008000400020000000000093
:1046440004002A002A002A001E00FE001200220094
:1046540022001C001C0022002200220014001C0066
:10466400220022001200FE001C002A002A002A0058
:10467400180010007E009000800040001800250003
:10468400250025001E00FE001000100010000E0082
:10469400000012005E0002000000020001000100A0
:1046A40011005E00FE000800080014002200000053
:1046B4008200FE00020000003E0020001C002000DA
:1046C4001E003E002000200020001E001C002200CE
:1046D400220022001C003F002400240024001800B3
:1046E4001800240024003F0001003E0010002000B8
:1046F4002000100012002A002A002A0004000000F2
:1047040010003C00120004003C0002000200020001
:104714003E0030000C0002000C003000380006009F
:1047240018000600380022001400080014002200BB
:1047340038000500050005003E00220026002A007E
:1047440032002200000010006C0082008200000091
:104754000000FF000000000004000200FF0002004F
:104764000400820082006C001000000008001000A9
:10477400180008001000010800FFFFFFFF564D4419
:1047840050565F317C315F564D4450560D0A0057E8
:104794007269746520536F6D657468696E672074FF
:1047A4006F2066696C652E00474F4F474C452E5469
:1047B400585400486920212049276D207761697485
:1047C400696E6720666F722061206D65737361671F
:1047D400652E205479706520697420616E642070A0
:1047E400726573732053454E442E00564D44504514
:1047F4005F31007C005F564D4450450D0A005772EE
:104804006974696E6720436F6D706C65746521000F
:104814005265577269746500000000000D05230598
:10482400FB055C0565053E052F00000000003613FE
:10483400821F564D4450435F005F564D4450430D14
:104844000A004572726F723A20417474656D707417
:1048540020746F20736574206120726561642D6F0C
:104864006E6C79207661726961626C65206F72206A
:10487400646174612074797065206E6F742073753F
:1048840070706F727465640D0A00000000005B1D97
:10489400821FB11CCA1CBC1C3A1D6E616E00696E7D
:0648A40066006F7666005D
:00000001FF
